{
  "_format": "hh-sol-artifact-1",
  "contractName": "EncryptedGHO",
  "sourceName": "contracts/EncryptedGHO.sol",
  "abi": [
    {
      "inputs": [
        {
          "internalType": "address",
          "name": "admin",
          "type": "address"
        },
        {
          "internalType": "address",
          "name": "facilitatorManager",
          "type": "address"
        },
        {
          "internalType": "address",
          "name": "bucketManager",
          "type": "address"
        }
      ],
      "stateMutability": "nonpayable",
      "type": "constructor"
    },
    {
      "inputs": [],
      "name": "InvalidShortString",
      "type": "error"
    },
    {
      "inputs": [
        {
          "internalType": "string",
          "name": "str",
          "type": "string"
        }
      ],
      "name": "StringTooLong",
      "type": "error"
    },
    {
      "anonymous": false,
      "inputs": [],
      "name": "EIP712DomainChanged",
      "type": "event"
    },
    {
      "anonymous": false,
      "inputs": [
        {
          "indexed": true,
          "internalType": "address",
          "name": "facilitatorAddress",
          "type": "address"
        },
        {
          "indexed": true,
          "internalType": "bytes32",
          "name": "label",
          "type": "bytes32"
        },
        {
          "indexed": false,
          "internalType": "uint256",
          "name": "bucketCapacity",
          "type": "uint256"
        }
      ],
      "name": "FacilitatorAdded",
      "type": "event"
    },
    {
      "anonymous": false,
      "inputs": [
        {
          "indexed": true,
          "internalType": "address",
          "name": "facilitatorAddress",
          "type": "address"
        },
        {
          "indexed": false,
          "internalType": "uint256",
          "name": "oldCapacity",
          "type": "uint256"
        },
        {
          "indexed": false,
          "internalType": "uint256",
          "name": "newCapacity",
          "type": "uint256"
        }
      ],
      "name": "FacilitatorBucketCapacityUpdated",
      "type": "event"
    },
    {
      "anonymous": false,
      "inputs": [
        {
          "indexed": true,
          "internalType": "address",
          "name": "facilitatorAddress",
          "type": "address"
        },
        {
          "indexed": false,
          "internalType": "uint256",
          "name": "oldLevel",
          "type": "uint256"
        },
        {
          "indexed": false,
          "internalType": "uint256",
          "name": "newLevel",
          "type": "uint256"
        }
      ],
      "name": "FacilitatorBucketLevelUpdated",
      "type": "event"
    },
    {
      "anonymous": false,
      "inputs": [
        {
          "indexed": true,
          "internalType": "address",
          "name": "facilitatorAddress",
          "type": "address"
        }
      ],
      "name": "FacilitatorRemoved",
      "type": "event"
    },
    {
      "anonymous": false,
      "inputs": [
        {
          "indexed": true,
          "internalType": "bytes32",
          "name": "role",
          "type": "bytes32"
        },
        {
          "indexed": true,
          "internalType": "bytes32",
          "name": "previousAdminRole",
          "type": "bytes32"
        },
        {
          "indexed": true,
          "internalType": "bytes32",
          "name": "newAdminRole",
          "type": "bytes32"
        }
      ],
      "name": "RoleAdminChanged",
      "type": "event"
    },
    {
      "anonymous": false,
      "inputs": [
        {
          "indexed": true,
          "internalType": "bytes32",
          "name": "role",
          "type": "bytes32"
        },
        {
          "indexed": true,
          "internalType": "address",
          "name": "account",
          "type": "address"
        },
        {
          "indexed": true,
          "internalType": "address",
          "name": "sender",
          "type": "address"
        }
      ],
      "name": "RoleGranted",
      "type": "event"
    },
    {
      "anonymous": false,
      "inputs": [
        {
          "indexed": true,
          "internalType": "bytes32",
          "name": "role",
          "type": "bytes32"
        },
        {
          "indexed": true,
          "internalType": "address",
          "name": "account",
          "type": "address"
        },
        {
          "indexed": true,
          "internalType": "address",
          "name": "sender",
          "type": "address"
        }
      ],
      "name": "RoleRevoked",
      "type": "event"
    },
    {
      "inputs": [],
      "name": "BUCKET_MANAGER_ROLE",
      "outputs": [
        {
          "internalType": "bytes32",
          "name": "",
          "type": "bytes32"
        }
      ],
      "stateMutability": "view",
      "type": "function"
    },
    {
      "inputs": [],
      "name": "DEFAULT_ADMIN_ROLE",
      "outputs": [
        {
          "internalType": "bytes32",
          "name": "",
          "type": "bytes32"
        }
      ],
      "stateMutability": "view",
      "type": "function"
    },
    {
      "inputs": [],
      "name": "FACILITATOR_MANAGER_ROLE",
      "outputs": [
        {
          "internalType": "bytes32",
          "name": "",
          "type": "bytes32"
        }
      ],
      "stateMutability": "view",
      "type": "function"
    },
    {
      "inputs": [
        {
          "internalType": "address",
          "name": "facilitatorAddress",
          "type": "address"
        },
        {
          "internalType": "string",
          "name": "facilitatorLabel",
          "type": "string"
        },
        {
          "internalType": "bytes",
          "name": "bucketCapacity",
          "type": "bytes"
        }
      ],
      "name": "addFacilitator",
      "outputs": [],
      "stateMutability": "nonpayable",
      "type": "function"
    },
    {
      "inputs": [
        {
          "internalType": "address",
          "name": "spender",
          "type": "address"
        },
        {
          "internalType": "bytes32",
          "name": "publicKey",
          "type": "bytes32"
        },
        {
          "internalType": "bytes",
          "name": "signature",
          "type": "bytes"
        }
      ],
      "name": "allowance",
      "outputs": [
        {
          "internalType": "bytes",
          "name": "",
          "type": "bytes"
        }
      ],
      "stateMutability": "view",
      "type": "function"
    },
    {
      "inputs": [
        {
          "internalType": "address",
          "name": "spender",
          "type": "address"
        },
        {
          "internalType": "bytes",
          "name": "encryptedAmount",
          "type": "bytes"
        }
      ],
      "name": "approve",
      "outputs": [],
      "stateMutability": "nonpayable",
      "type": "function"
    },
    {
      "inputs": [
        {
          "internalType": "bytes32",
          "name": "publicKey",
          "type": "bytes32"
        },
        {
          "internalType": "bytes",
          "name": "signature",
          "type": "bytes"
        }
      ],
      "name": "balanceOf",
      "outputs": [
        {
          "internalType": "bytes",
          "name": "",
          "type": "bytes"
        }
      ],
      "stateMutability": "view",
      "type": "function"
    },
    {
      "inputs": [
        {
          "internalType": "address",
          "name": "account",
          "type": "address"
        },
        {
          "internalType": "bytes",
          "name": "encryptedAmount",
          "type": "bytes"
        }
      ],
      "name": "burn",
      "outputs": [],
      "stateMutability": "nonpayable",
      "type": "function"
    },
    {
      "inputs": [],
      "name": "decimals",
      "outputs": [
        {
          "internalType": "uint8",
          "name": "",
          "type": "uint8"
        }
      ],
      "stateMutability": "view",
      "type": "function"
    },
    {
      "inputs": [],
      "name": "eip712Domain",
      "outputs": [
        {
          "internalType": "bytes1",
          "name": "fields",
          "type": "bytes1"
        },
        {
          "internalType": "string",
          "name": "name",
          "type": "string"
        },
        {
          "internalType": "string",
          "name": "version",
          "type": "string"
        },
        {
          "internalType": "uint256",
          "name": "chainId",
          "type": "uint256"
        },
        {
          "internalType": "address",
          "name": "verifyingContract",
          "type": "address"
        },
        {
          "internalType": "bytes32",
          "name": "salt",
          "type": "bytes32"
        },
        {
          "internalType": "uint256[]",
          "name": "extensions",
          "type": "uint256[]"
        }
      ],
      "stateMutability": "view",
      "type": "function"
    },
    {
      "inputs": [
        {
          "internalType": "address",
          "name": "account",
          "type": "address"
        }
      ],
      "name": "encryptedBalance",
      "outputs": [
        {
          "internalType": "euint32",
          "name": "",
          "type": "uint256"
        }
      ],
      "stateMutability": "view",
      "type": "function"
    },
    {
      "inputs": [
        {
          "internalType": "address",
          "name": "facilitator",
          "type": "address"
        },
        {
          "internalType": "bytes32",
          "name": "publicKey",
          "type": "bytes32"
        }
      ],
      "name": "getFacilitatorBucket",
      "outputs": [
        {
          "internalType": "bytes",
          "name": "",
          "type": "bytes"
        },
        {
          "internalType": "bytes",
          "name": "",
          "type": "bytes"
        }
      ],
      "stateMutability": "view",
      "type": "function"
    },
    {
      "inputs": [],
      "name": "getFacilitatorsList",
      "outputs": [
        {
          "internalType": "address[]",
          "name": "",
          "type": "address[]"
        }
      ],
      "stateMutability": "view",
      "type": "function"
    },
    {
      "inputs": [
        {
          "internalType": "bytes32",
          "name": "role",
          "type": "bytes32"
        }
      ],
      "name": "getRoleAdmin",
      "outputs": [
        {
          "internalType": "bytes32",
          "name": "",
          "type": "bytes32"
        }
      ],
      "stateMutability": "view",
      "type": "function"
    },
    {
      "inputs": [
        {
          "internalType": "bytes32",
          "name": "publicKey",
          "type": "bytes32"
        },
        {
          "internalType": "bytes",
          "name": "signature",
          "type": "bytes"
        }
      ],
      "name": "getTotalSupply",
      "outputs": [
        {
          "internalType": "bytes",
          "name": "",
          "type": "bytes"
        }
      ],
      "stateMutability": "view",
      "type": "function"
    },
    {
      "inputs": [
        {
          "internalType": "bytes32",
          "name": "role",
          "type": "bytes32"
        },
        {
          "internalType": "address",
          "name": "account",
          "type": "address"
        }
      ],
      "name": "grantRole",
      "outputs": [],
      "stateMutability": "nonpayable",
      "type": "function"
    },
    {
      "inputs": [
        {
          "internalType": "bytes32",
          "name": "role",
          "type": "bytes32"
        },
        {
          "internalType": "address",
          "name": "account",
          "type": "address"
        }
      ],
      "name": "hasRole",
      "outputs": [
        {
          "internalType": "bool",
          "name": "",
          "type": "bool"
        }
      ],
      "stateMutability": "view",
      "type": "function"
    },
    {
      "inputs": [
        {
          "internalType": "address",
          "name": "account",
          "type": "address"
        },
        {
          "internalType": "bytes",
          "name": "encryptedAmount",
          "type": "bytes"
        }
      ],
      "name": "mint",
      "outputs": [],
      "stateMutability": "nonpayable",
      "type": "function"
    },
    {
      "inputs": [],
      "name": "name",
      "outputs": [
        {
          "internalType": "string",
          "name": "",
          "type": "string"
        }
      ],
      "stateMutability": "view",
      "type": "function"
    },
    {
      "inputs": [
        {
          "internalType": "address",
          "name": "facilitatorAddress",
          "type": "address"
        }
      ],
      "name": "removeFacilitator",
      "outputs": [],
      "stateMutability": "nonpayable",
      "type": "function"
    },
    {
      "inputs": [
        {
          "internalType": "bytes32",
          "name": "role",
          "type": "bytes32"
        },
        {
          "internalType": "address",
          "name": "account",
          "type": "address"
        }
      ],
      "name": "renounceRole",
      "outputs": [],
      "stateMutability": "nonpayable",
      "type": "function"
    },
    {
      "inputs": [
        {
          "internalType": "bytes32",
          "name": "role",
          "type": "bytes32"
        },
        {
          "internalType": "address",
          "name": "account",
          "type": "address"
        }
      ],
      "name": "revokeRole",
      "outputs": [],
      "stateMutability": "nonpayable",
      "type": "function"
    },
    {
      "inputs": [
        {
          "internalType": "address",
          "name": "facilitator",
          "type": "address"
        },
        {
          "internalType": "bytes",
          "name": "newCapacity",
          "type": "bytes"
        }
      ],
      "name": "setFacilitatorBucketCapacity",
      "outputs": [],
      "stateMutability": "nonpayable",
      "type": "function"
    },
    {
      "inputs": [
        {
          "internalType": "bytes4",
          "name": "interfaceId",
          "type": "bytes4"
        }
      ],
      "name": "supportsInterface",
      "outputs": [
        {
          "internalType": "bool",
          "name": "",
          "type": "bool"
        }
      ],
      "stateMutability": "view",
      "type": "function"
    },
    {
      "inputs": [],
      "name": "symbol",
      "outputs": [
        {
          "internalType": "string",
          "name": "",
          "type": "string"
        }
      ],
      "stateMutability": "view",
      "type": "function"
    },
    {
      "inputs": [
        {
          "internalType": "address",
          "name": "to",
          "type": "address"
        },
        {
          "internalType": "bytes",
          "name": "encryptedAmount",
          "type": "bytes"
        }
      ],
      "name": "transfer",
      "outputs": [],
      "stateMutability": "nonpayable",
      "type": "function"
    },
    {
      "inputs": [
        {
          "internalType": "address",
          "name": "to",
          "type": "address"
        },
        {
          "internalType": "euint32",
          "name": "amount",
          "type": "uint256"
        }
      ],
      "name": "transfer",
      "outputs": [],
      "stateMutability": "nonpayable",
      "type": "function"
    },
    {
      "inputs": [
        {
          "internalType": "address",
          "name": "from",
          "type": "address"
        },
        {
          "internalType": "address",
          "name": "to",
          "type": "address"
        },
        {
          "internalType": "euint32",
          "name": "amount",
          "type": "uint256"
        }
      ],
      "name": "transferFrom",
      "outputs": [],
      "stateMutability": "nonpayable",
      "type": "function"
    },
    {
      "inputs": [
        {
          "internalType": "address",
          "name": "from",
          "type": "address"
        },
        {
          "internalType": "address",
          "name": "to",
          "type": "address"
        },
        {
          "internalType": "bytes",
          "name": "encryptedAmount",
          "type": "bytes"
        }
      ],
      "name": "transferFrom",
      "outputs": [],
      "stateMutability": "nonpayable",
      "type": "function"
    }
  ],
  "bytecode": "0x6101606040523480156200001257600080fd5b5060405162002f6238038062002f628339810160408190526200003591620002fd565b604080518082018252600981526823a427903a37b5b2b760b91b602080830191909152825180840190935260018352603160f81b908301529081816200007d826000620001a7565b610120526200008e816001620001a7565b61014052815160208084019190912060e052815190820120610100524660a0526200011c60e05161010051604080517f8b73c3c69bb8fe3d512ecc4cf759cc79239f7b179b0ffacaa9a75d522b39400f60208201529081019290925260608201524660808201523060a082015260009060c00160405160208183030381529060405280519060200120905090565b60805250503060c0525050600780546001600160a01b0319163317905562000146600084620001e0565b620001727f5e20732f79076148980e17b6ce9f22756f85058fe2765420ed48a504bef5a8bc83620001e0565b6200019e7fc7f115822aabac0cd6b9d21b08c0c63819451a58157aecad689d1b5674fad40882620001e0565b5050506200052d565b6000602083511015620001c757620001bf83620001f0565b9050620001da565b81620001d48482620003ec565b5060ff90505b92915050565b620001ec82826200023c565b5050565b600080829050601f8151111562000227578260405163305a27a960e01b81526004016200021e9190620004b8565b60405180910390fd5b8051620002348262000508565b179392505050565b60008281526002602090815260408083206001600160a01b038516845290915290205460ff16620001ec5760008281526002602090815260408083206001600160a01b03851684529091529020805460ff191660011790556200029c3390565b6001600160a01b0316816001600160a01b0316837f2f8788117e7eff1d82e926ec794901d17c78024a50270940304540a733656f0d60405160405180910390a45050565b80516001600160a01b0381168114620002f857600080fd5b919050565b6000806000606084860312156200031357600080fd5b6200031e84620002e0565b92506200032e60208501620002e0565b91506200033e60408501620002e0565b90509250925092565b634e487b7160e01b600052604160045260246000fd5b600181811c908216806200037257607f821691505b6020821081036200039357634e487b7160e01b600052602260045260246000fd5b50919050565b601f821115620003e757600081815260208120601f850160051c81016020861015620003c25750805b601f850160051c820191505b81811015620003e357828155600101620003ce565b5050505b505050565b81516001600160401b0381111562000408576200040862000347565b62000420816200041984546200035d565b8462000399565b602080601f8311600181146200045857600084156200043f5750858301515b600019600386901b1c1916600185901b178555620003e3565b600085815260208120601f198616915b82811015620004895788860151825594840194600190910190840162000468565b5085821015620004a85787850151600019600388901b60f8161c191681555b5050505050600190811b01905550565b600060208083528351808285015260005b81811015620004e757858101830151858201604001528201620004c9565b506000604082860101526040601f19601f8301168501019250505092915050565b80516020808301519190811015620003935760001960209190910360031b1b16919050565b60805160a05160c05160e0516101005161012051610140516129da6200058860003960006108de015260006108b40152600061186b015260006118430152600061179e015260006117c8015260006117f201526129da6000f3fe608060405234801561001057600080fd5b50600436106101cf5760003560e01c8063550d996411610104578063a217fddf116100a2578063d547741f11610071578063d547741f146104a1578063d6241218146104b4578063e813a792146104c7578063f5807f0c146104da57600080fd5b8063a217fddf14610460578063a9059cbb14610468578063b510391f1461047b578063b6ce514b1461048e57600080fd5b80638ff9e2f5116100de5780638ff9e2f5146103df57806391d14854146103f257806395d89b411461042b578063a11812ba1461044d57600080fd5b8063550d99641461038a5780637b7c65c9146103b157806384b0196e146103c457600080fd5b80632f2ff15d11610171578063433bef441161014b578063433bef441461030657806346b42c051461032d578063499726631461034e5780634c1446a61461036157600080fd5b80632f2ff15d146102c6578063313ce567146102d957806336568abe146102f357600080fd5b80631ec90f2e116101ad5780631ec90f2e1461025a57806323b872dd1461026f578063248a9ca31461028257806329723511146102b357600080fd5b8063014647f4146101d457806301ffc9a7146101e957806306fdde0314610211575b600080fd5b6101e76101e2366004612247565b6104ed565b005b6101fc6101f736600461229a565b610568565b60405190151581526020015b60405180910390f35b61024d6040518060400160405280601181526020017f47484f205072697661746520546f6b656e00000000000000000000000000000081525081565b6040516102089190612314565b61026261059f565b6040516102089190612327565b6101e761027d366004612374565b6105b0565b6102a56102903660046123b0565b60009081526002602052604090206001015490565b604051908152602001610208565b6101e76102c1366004612247565b6105c7565b6101e76102d43660046123c9565b61060f565b6102e1601281565b60405160ff9091168152602001610208565b6101e76103013660046123c9565b610634565b6102a57f5e20732f79076148980e17b6ce9f22756f85058fe2765420ed48a504bef5a8bc81565b61034061033b3660046123f5565b6106c5565b60405161020892919061241f565b6101e761035c366004612444565b610722565b6102a561036f3660046124a5565b6001600160a01b031660009081526005602052604090205490565b6102a57fc7f115822aabac0cd6b9d21b08c0c63819451a58157aecad689d1b5674fad40881565b61024d6103bf3660046124c0565b610766565b6103cc6108a6565b60405161020897969594939291906124f3565b61024d6103ed3660046124c0565b61092e565b6101fc6104003660046123c9565b60009182526002602090815260408084206001600160a01b0393909316845291905290205460ff1690565b61024d6040518060400160405280600381526020016247484f60e81b81525081565b6101e761045b3660046124a5565b610a42565b6102a5600081565b6101e76104763660046123f5565b610b9e565b6101e7610489366004612247565b610ba9565b61024d61049c366004612589565b610c7f565b6101e76104af3660046123c9565b610db4565b6101e76104c2366004612247565b610dd9565b6101e76104d5366004612247565b610ec4565b6101e76104e83660046125cb565b610fc7565b6000339050610562818561053686868080601f01602080910402602001604051908101604052809392919081815260200183838082843760009201919091525061111892505050565b6001600160a01b0392831660009081526006602090815260408083209490951682529290925291902055565b50505050565b60006001600160e01b03198216637965db0b60e01b148061059957506301ffc9a760e01b6001600160e01b03198316145b92915050565b60606105ab6009611125565b905090565b336105bc848284611139565b61056284848461117b565b61060a8361047684848080601f01602080910402602001604051908101604052809392919081815260200183838082843760009201919091525061111892505050565b505050565b60008281526002602052604090206001015461062a81611229565b61060a8383611236565b6001600160a01b03811633146106b75760405162461bcd60e51b815260206004820152602f60248201527f416363657373436f6e74726f6c3a2063616e206f6e6c792072656e6f756e636560448201527f20726f6c657320666f722073656c66000000000000000000000000000000000060648201526084015b60405180910390fd5b6106c182826112d8565b5050565b6001600160a01b03821660009081526008602052604090206001015460609081906106f0908461135b565b6001600160a01b038516600090815260086020526040902060020154610716908561135b565b915091505b9250929050565b610562848461027d85858080601f01602080910402602001604051908101604052809392919081815260200183838082843760009201919091525061111892505050565b6007546060906001600160a01b0316331461078057600080fd5b8383838080601f0160208091040260200160405190810160405280939291908181526020018383808284376000920182905250604080517f051d137ae0e1fae6e3b6559fed4442b35a85a9a39789838ad5c9ea05e7da2dce602082015290810187905290935061080c925060600190505b60405160208183030381529060405280519060200120611367565b9050600061081a8284611394565b90506001600160a01b038116331461088e5760405162461bcd60e51b815260206004820152603160248201527f454950373132207369676e657220616e64207472616e73616374696f6e2073696044820152700cedccae440c8de40dcdee840dac2e8c6d607b1b60648201526084016106ae565b61089a6003548961135b565b98975050505050505050565b6000606080828080836108d97f0000000000000000000000000000000000000000000000000000000000000000836113b8565b6109047f000000000000000000000000000000000000000000000000000000000000000060016113b8565b60408051600080825260208201909252600f60f81b9b939a50919850469750309650945092509050565b60608383838080601f0160208091040260200160405190810160405280939291908181526020018383808284376000920182905250604080517f051d137ae0e1fae6e3b6559fed4442b35a85a9a39789838ad5c9ea05e7da2dce60208201529081018790529093506109a5925060600190506107f1565b905060006109b38284611394565b90506001600160a01b0381163314610a275760405162461bcd60e51b815260206004820152603160248201527f454950373132207369676e657220616e64207472616e73616374696f6e2073696044820152700cedccae440c8de40dcdee840dac2e8c6d607b1b60648201526084016106ae565b3360009081526005602052604081205461089a918a90611463565b7f5e20732f79076148980e17b6ce9f22756f85058fe2765420ed48a504bef5a8bc610a6c81611229565b6001600160a01b03821660009081526008602052604081208054610a8f90612662565b905011610ade5760405162461bcd60e51b815260206004820152601a60248201527f464143494c495441544f525f444f45535f4e4f545f455849535400000000000060448201526064016106ae565b6001600160a01b038216600090815260086020526040902060020154610b0390611494565b63ffffffff1615610b605760405162461bcd60e51b815260206004820152602160248201527f464143494c495441544f525f4255434b45545f4c4556454c5f4e4f545f5a45526044820152604f60f81b60648201526084016106ae565b6001600160a01b038216600090815260086020526040812090610b83828261219b565b5060006001820181905560029091015561060a60098361149f565b6106c133838361117b565b3360009081526008602090815260408083208151601f86018490048402810184019092528482529291610bf79190869086908190840183828082843760009201919091525061111892505050565b60028301549091506000610c0b82846114b4565b9050610c23610c1e8560010154836114c0565b6114fc565b600284018190556001600160a01b038716600090815260056020526040902054610c4d9084611505565b6001600160a01b038816600090815260056020526040902055600354610c739084611505565b60035550505050505050565b60608383838080601f0160208091040260200160405190810160405280939291908181526020018383808284376000920182905250604080517f051d137ae0e1fae6e3b6559fed4442b35a85a9a39789838ad5c9ea05e7da2dce6020820152908101879052909350610cf6925060600190506107f1565b90506000610d048284611394565b90506001600160a01b0381163314610d785760405162461bcd60e51b815260206004820152603160248201527f454950373132207369676e657220616e64207472616e73616374696f6e2073696044820152700cedccae440c8de40dcdee840dac2e8c6d607b1b60648201526084016106ae565b3360008181526006602090815260408083206001600160a01b038e168452909152902054610da6908a61135b565b9a9950505050505050505050565b600082815260026020526040902060010154610dcf81611229565b61060a83836112d8565b6000610e1a83838080601f01602080910402602001604051908101604052809392919081815260200183838082843760009201919091525061111892505050565b33600090815260086020526040812060028101549293509190610e3d8285611537565b600284018190556001600160a01b038816600090815260056020526040902054909150610e6a908561153f565b6001600160a01b038816600090815260056020526040902055600354610e90908561153f565b6003556001600160a01b038716600090815260056020526040902054610ebb90610c1e908690611571565b50505050505050565b7fc7f115822aabac0cd6b9d21b08c0c63819451a58157aecad689d1b5674fad408610eee81611229565b6001600160a01b03841660009081526008602052604081208054610f1190612662565b905011610f605760405162461bcd60e51b815260206004820152601a60248201527f464143494c495441544f525f444f45535f4e4f545f455849535400000000000060448201526064016106ae565b6000610fa184848080601f01602080910402602001604051908101604052809392919081815260200183838082843760009201919091525061111892505050565b6001600160a01b0390951660009081526008602052604090206001019490945550505050565b7f5e20732f79076148980e17b6ce9f22756f85058fe2765420ed48a504bef5a8bc610ff181611229565b6001600160a01b03861660009081526008602052604090208054819061101690612662565b1590506110655760405162461bcd60e51b815260206004820152601a60248201527f464143494c495441544f525f414c52454144595f45584953545300000000000060448201526064016106ae565b846110b25760405162461bcd60e51b815260206004820152600d60248201527f494e56414c49445f4c4142454c0000000000000000000000000000000000000060448201526064016106ae565b806110be8688836126ea565b506110fe84848080601f01602080910402602001604051908101604052809392919081815260200183838082843760009201919091525061111892505050565b600182015561110e6009886115a6565b5050505050505050565b60006105998260026115bb565b6060600061113283611651565b9392505050565b6001600160a01b0383811660009081526006602090815260408083209386168352929052205461116c610c1e8383611571565b6105628484610536848661153f565b6001600160a01b0383166000908152600560205260409020546111a390610c1e908390611571565b6001600160a01b0383166111b657600080fd5b6001600160a01b0382166000908152600560205260409020546111d99082611505565b6001600160a01b038084166000908152600560205260408082209390935590851681522054611208908261153f565b6001600160a01b039093166000908152600560205260409020929092555050565b61123381336116ad565b50565b60008281526002602090815260408083206001600160a01b038516845290915290205460ff166106c15760008281526002602090815260408083206001600160a01b03851684529091529020805460ff191660011790556112943390565b6001600160a01b0316816001600160a01b0316837f2f8788117e7eff1d82e926ec794901d17c78024a50270940304540a733656f0d60405160405180910390a45050565b60008281526002602090815260408083206001600160a01b038516845290915290205460ff16156106c15760008281526002602090815260408083206001600160a01b0385168085529252808320805460ff1916905551339285917ff6391f5c32d9c69d2a47ea670b442974b53935d1edc7fd64eb21e047a839171b9190a45050565b60606111328383611722565b6000610599611374611791565b8360405161190160f01b8152600281019290925260228201526042902090565b60008060006113a385856118bc565b915091506113b0816118fe565b509392505050565b606060ff83146113d2576113cb83611a48565b9050610599565b8180546113de90612662565b80601f016020809104026020016040519081016040528092919081815260200182805461140a90612662565b80156114575780601f1061142c57610100808354040283529160200191611457565b820191906000526020600020905b81548152906001019060200180831161143a57829003601f168201915b50505050509050610599565b6060831561147c576114758484611722565b9050611132565b61147561148e8363ffffffff16611a87565b84611722565b600061059982611a94565b6000611132836001600160a01b038416611af8565b60006111328383611505565b6000826114d4576114d16000611a87565b92505b816114e6576114e36000611a87565b91505b6111326114f584846000611beb565b6000611c85565b61123381611cfe565b600082611519576115166000611a87565b92505b8161152b576115286000611a87565b91505b61113283836000611d6d565b600061113283835b600082611553576115506000611a87565b92505b81611565576115626000611a87565b91505b61113283836000611dc1565b600082611585576115826000611a87565b92505b81611597576115946000611a87565b91505b6111326114f584846000611e15565b6000611132836001600160a01b038416611e69565b600080838360f81b6040516020016115d49291906127ab565b60408051601f1981840301815290829052630964a5d960e31b82529150605d90634b252ec890611608908490600401612314565b602060405180830381865afa158015611625573d6000803e3d6000fd5b505050506040513d601f19601f8201168201806040525081019061164991906127da565b949350505050565b6060816000018054806020026020016040519081016040528092919081815260200182805480156116a157602002820191906000526020600020905b81548152602001906001019080831161168d575b50505050509050919050565b60008281526002602090815260408083206001600160a01b038516845290915290205460ff166106c1576116e081611eb8565b6116eb836020611eca565b6040516020016116fc9291906127f3565b60408051601f198184030181529082905262461bcd60e51b82526106ae91600401612314565b60405163d6ad57cd60e01b81526004810183905260248101829052606090605d9063d6ad57cd90604401600060405180830381865afa158015611769573d6000803e3d6000fd5b505050506040513d6000823e601f3d908101601f191682016040526111329190810190612874565b6000306001600160a01b037f0000000000000000000000000000000000000000000000000000000000000000161480156117ea57507f000000000000000000000000000000000000000000000000000000000000000046145b1561181457507f000000000000000000000000000000000000000000000000000000000000000090565b6105ab604080517f8b73c3c69bb8fe3d512ecc4cf759cc79239f7b179b0ffacaa9a75d522b39400f60208201527f0000000000000000000000000000000000000000000000000000000000000000918101919091527f000000000000000000000000000000000000000000000000000000000000000060608201524660808201523060a082015260009060c00160405160208183030381529060405280519060200120905090565b60008082516041036118f25760208301516040840151606085015160001a6118e687828585612073565b9450945050505061071b565b5060009050600261071b565b600081600481111561191257611912612921565b0361191a5750565b600181600481111561192e5761192e612921565b0361197b5760405162461bcd60e51b815260206004820152601860248201527f45434453413a20696e76616c6964207369676e6174757265000000000000000060448201526064016106ae565b600281600481111561198f5761198f612921565b036119dc5760405162461bcd60e51b815260206004820152601f60248201527f45434453413a20696e76616c6964207369676e6174757265206c656e6774680060448201526064016106ae565b60038160048111156119f0576119f0612921565b036112335760405162461bcd60e51b815260206004820152602260248201527f45434453413a20696e76616c6964207369676e6174757265202773272076616c604482015261756560f01b60648201526084016106ae565b60606000611a5583612137565b604080516020808252818301909252919250600091906020820181803683375050509182525060208101929092525090565b600061059982600261215f565b6040516301693b9160e61b815260048101829052600090605d90635a4ee44090602401602060405180830381865afa158015611ad4573d6000803e3d6000fd5b505050506040513d601f19601f8201168201806040525081019061059991906127da565b60008181526001830160205260408120548015611be1576000611b1c60018361294d565b8554909150600090611b309060019061294d565b9050818114611b95576000866000018281548110611b5057611b50612960565b9060005260206000200154905080876000018481548110611b7357611b73612960565b6000918252602080832090910192909255918252600188019052604090208390555b8554869080611ba657611ba6612976565b600190038181906000526020600020016000905590558560010160008681526020019081526020016000206000905560019350505050610599565b6000915050610599565b6000808215611bff5750600160f81b611c03565b5060005b60405163052896f160e01b815260048101869052602481018590526001600160f81b031982166044820152605d9063052896f1906064015b602060405180830381865afa158015611c58573d6000803e3d6000fd5b505050506040513d601f19601f82011682018060405250810190611c7c91906127da565b95945050505050565b60405163025f346960e51b8152600481018390526001600160f81b031960f883901b166024820152600090605d90634be68d20906044015b602060405180830381865afa158015611cda573d6000803e3d6000fd5b505050506040513d601f19601f8201168201806040525081019061113291906127da565b600081604051602401611d1391815260200190565b60408051601f198184030181529190526020810180517bffffffffffffffffffffffffffffffffffffffffffffffffffffffff16634ee071a160e01b1781528151919250605d9060009081908490845afa61056257600080fd5b6000808215611d815750600160f81b611d85565b5060005b60405163f953e42760e01b815260048101869052602481018590526001600160f81b031982166044820152605d9063f953e42790606401611c3b565b6000808215611dd55750600160f81b611dd9565b5060005b604051638c14cc2160e01b815260048101869052602481018590526001600160f81b031982166044820152605d90638c14cc2190606401611c3b565b6000808215611e295750600160f81b611e2d565b5060005b6040516334a6d7b960e11b815260048101869052602481018590526001600160f81b031982166044820152605d9063694daf7290606401611c3b565b6000818152600183016020526040812054611eb057508154600181810184556000848152602080822090930184905584548482528286019093526040902091909155610599565b506000610599565b60606105996001600160a01b03831660145b60606000611ed983600261298c565b611ee49060026129a3565b67ffffffffffffffff811115611efc57611efc61264c565b6040519080825280601f01601f191660200182016040528015611f26576020820181803683370190505b509050600360fc1b81600081518110611f4157611f41612960565b60200101906001600160f81b031916908160001a905350600f60fb1b81600181518110611f7057611f70612960565b60200101906001600160f81b031916908160001a9053506000611f9484600261298c565b611f9f9060016129a3565b90505b6001811115612024577f303132333435363738396162636465660000000000000000000000000000000085600f1660108110611fe057611fe0612960565b1a60f81b828281518110611ff657611ff6612960565b60200101906001600160f81b031916908160001a90535060049490941c9361201d816129b6565b9050611fa2565b5083156111325760405162461bcd60e51b815260206004820181905260248201527f537472696e67733a20686578206c656e67746820696e73756666696369656e7460448201526064016106ae565b6000807f7fffffffffffffffffffffffffffffff5d576e7357a4501ddfe92f46681b20a08311156120aa575060009050600361212e565b6040805160008082526020820180845289905260ff881692820192909252606081018690526080810185905260019060a0016020604051602081039080840390855afa1580156120fe573d6000803e3d6000fd5b5050604051601f1901519150506001600160a01b0381166121275760006001925092505061212e565b9150600090505b94509492505050565b600060ff8216601f81111561059957604051632cd44ac360e21b815260040160405180910390fd5b604051631ce2e8d760e31b8152600481018390526001600160f81b031960f883901b166024820152600090605d9063e71746b890604401611cbd565b5080546121a790612662565b6000825580601f106121b7575050565b601f01602090049060005260206000209081019061123391905b808211156121e557600081556001016121d1565b5090565b80356001600160a01b038116811461220057600080fd5b919050565b60008083601f84011261221757600080fd5b50813567ffffffffffffffff81111561222f57600080fd5b60208301915083602082850101111561071b57600080fd5b60008060006040848603121561225c57600080fd5b612265846121e9565b9250602084013567ffffffffffffffff81111561228157600080fd5b61228d86828701612205565b9497909650939450505050565b6000602082840312156122ac57600080fd5b81356001600160e01b03198116811461113257600080fd5b60005b838110156122df5781810151838201526020016122c7565b50506000910152565b600081518084526123008160208601602086016122c4565b601f01601f19169290920160200192915050565b60208152600061113260208301846122e8565b6020808252825182820181905260009190848201906040850190845b818110156123685783516001600160a01b031683529284019291840191600101612343565b50909695505050505050565b60008060006060848603121561238957600080fd5b612392846121e9565b92506123a0602085016121e9565b9150604084013590509250925092565b6000602082840312156123c257600080fd5b5035919050565b600080604083850312156123dc57600080fd5b823591506123ec602084016121e9565b90509250929050565b6000806040838503121561240857600080fd5b612411836121e9565b946020939093013593505050565b60408152600061243260408301856122e8565b8281036020840152611c7c81856122e8565b6000806000806060858703121561245a57600080fd5b612463856121e9565b9350612471602086016121e9565b9250604085013567ffffffffffffffff81111561248d57600080fd5b61249987828801612205565b95989497509550505050565b6000602082840312156124b757600080fd5b611132826121e9565b6000806000604084860312156124d557600080fd5b83359250602084013567ffffffffffffffff81111561228157600080fd5b60ff60f81b881681526000602060e08184015261251360e084018a6122e8565b8381036040850152612525818a6122e8565b606085018990526001600160a01b038816608086015260a0850187905284810360c0860152855180825283870192509083019060005b818110156125775783518352928401929184019160010161255b565b50909c9b505050505050505050505050565b6000806000806060858703121561259f57600080fd5b6125a8856121e9565b935060208501359250604085013567ffffffffffffffff81111561248d57600080fd5b6000806000806000606086880312156125e357600080fd5b6125ec866121e9565b9450602086013567ffffffffffffffff8082111561260957600080fd5b61261589838a01612205565b9096509450604088013591508082111561262e57600080fd5b5061263b88828901612205565b969995985093965092949392505050565b634e487b7160e01b600052604160045260246000fd5b600181811c9082168061267657607f821691505b60208210810361269657634e487b7160e01b600052602260045260246000fd5b50919050565b601f82111561060a57600081815260208120601f850160051c810160208610156126c35750805b601f850160051c820191505b818110156126e2578281556001016126cf565b505050505050565b67ffffffffffffffff8311156127025761270261264c565b612716836127108354612662565b8361269c565b6000601f84116001811461274a57600085156127325750838201355b600019600387901b1c1916600186901b1783556127a4565b600083815260209020601f19861690835b8281101561277b578685013582556020948501946001909201910161275b565b50868210156127985760001960f88860031b161c19848701351681555b505060018560011b0183555b5050505050565b600083516127bd8184602088016122c4565b6001600160f81b0319939093169190920190815260010192915050565b6000602082840312156127ec57600080fd5b5051919050565b7f416363657373436f6e74726f6c3a206163636f756e742000000000000000000081526000835161282b8160178501602088016122c4565b7f206973206d697373696e6720726f6c652000000000000000000000000000000060179184019182015283516128688160288401602088016122c4565b01602801949350505050565b60006020828403121561288657600080fd5b815167ffffffffffffffff8082111561289e57600080fd5b818401915084601f8301126128b257600080fd5b8151818111156128c4576128c461264c565b604051601f8201601f19908116603f011681019083821181831017156128ec576128ec61264c565b8160405282815287602084870101111561290557600080fd5b6129168360208301602088016122c4565b979650505050505050565b634e487b7160e01b600052602160045260246000fd5b634e487b7160e01b600052601160045260246000fd5b8181038181111561059957610599612937565b634e487b7160e01b600052603260045260246000fd5b634e487b7160e01b600052603160045260246000fd5b808202811582820484141761059957610599612937565b8082018082111561059957610599612937565b6000816129c5576129c5612937565b50600019019056fea164736f6c6343000813000a",
  "linkReferences": {},
  "deployedLinkReferences": {}
}