{
  "_format": "hh-sol-artifact-1",
  "contractName": "HypGHO",
  "sourceName": "contracts/HypGHO.sol",
  "abi": [
    {
      "inputs": [
        {
          "internalType": "uint8",
          "name": "__decimals",
          "type": "uint8"
        },
        {
          "internalType": "address",
          "name": "_mailbox",
          "type": "address"
        }
      ],
      "stateMutability": "nonpayable",
      "type": "constructor"
    },
    {
      "anonymous": false,
      "inputs": [
        {
          "indexed": true,
          "internalType": "address",
          "name": "owner",
          "type": "address"
        },
        {
          "indexed": true,
          "internalType": "address",
          "name": "spender",
          "type": "address"
        },
        {
          "indexed": false,
          "internalType": "uint256",
          "name": "value",
          "type": "uint256"
        }
      ],
      "name": "Approval",
      "type": "event"
    },
    {
      "anonymous": false,
      "inputs": [
        {
          "indexed": false,
          "internalType": "uint8",
          "name": "version",
          "type": "uint8"
        }
      ],
      "name": "Initialized",
      "type": "event"
    },
    {
      "anonymous": false,
      "inputs": [
        {
          "indexed": true,
          "internalType": "address",
          "name": "previousOwner",
          "type": "address"
        },
        {
          "indexed": true,
          "internalType": "address",
          "name": "newOwner",
          "type": "address"
        }
      ],
      "name": "OwnershipTransferred",
      "type": "event"
    },
    {
      "anonymous": false,
      "inputs": [
        {
          "indexed": true,
          "internalType": "uint32",
          "name": "origin",
          "type": "uint32"
        },
        {
          "indexed": true,
          "internalType": "bytes32",
          "name": "recipient",
          "type": "bytes32"
        },
        {
          "indexed": false,
          "internalType": "uint256",
          "name": "amount",
          "type": "uint256"
        }
      ],
      "name": "ReceivedTransferRemote",
      "type": "event"
    },
    {
      "anonymous": false,
      "inputs": [
        {
          "indexed": true,
          "internalType": "uint32",
          "name": "destination",
          "type": "uint32"
        },
        {
          "indexed": true,
          "internalType": "bytes32",
          "name": "recipient",
          "type": "bytes32"
        },
        {
          "indexed": false,
          "internalType": "uint256",
          "name": "amount",
          "type": "uint256"
        }
      ],
      "name": "SentTransferRemote",
      "type": "event"
    },
    {
      "anonymous": false,
      "inputs": [
        {
          "indexed": true,
          "internalType": "address",
          "name": "from",
          "type": "address"
        },
        {
          "indexed": true,
          "internalType": "address",
          "name": "to",
          "type": "address"
        },
        {
          "indexed": false,
          "internalType": "uint256",
          "name": "value",
          "type": "uint256"
        }
      ],
      "name": "Transfer",
      "type": "event"
    },
    {
      "inputs": [
        {
          "internalType": "address",
          "name": "",
          "type": "address"
        },
        {
          "internalType": "address",
          "name": "",
          "type": "address"
        }
      ],
      "name": "allowance",
      "outputs": [
        {
          "internalType": "uint256",
          "name": "",
          "type": "uint256"
        }
      ],
      "stateMutability": "view",
      "type": "function"
    },
    {
      "inputs": [
        {
          "internalType": "address",
          "name": "",
          "type": "address"
        },
        {
          "internalType": "uint256",
          "name": "",
          "type": "uint256"
        }
      ],
      "name": "approve",
      "outputs": [
        {
          "internalType": "bool",
          "name": "",
          "type": "bool"
        }
      ],
      "stateMutability": "nonpayable",
      "type": "function"
    },
    {
      "inputs": [
        {
          "internalType": "address",
          "name": "_account",
          "type": "address"
        }
      ],
      "name": "balanceOf",
      "outputs": [
        {
          "internalType": "uint256",
          "name": "",
          "type": "uint256"
        }
      ],
      "stateMutability": "view",
      "type": "function"
    },
    {
      "inputs": [],
      "name": "decimals",
      "outputs": [
        {
          "internalType": "uint8",
          "name": "",
          "type": "uint8"
        }
      ],
      "stateMutability": "view",
      "type": "function"
    },
    {
      "inputs": [
        {
          "internalType": "address",
          "name": "",
          "type": "address"
        },
        {
          "internalType": "uint256",
          "name": "",
          "type": "uint256"
        }
      ],
      "name": "decreaseAllowance",
      "outputs": [
        {
          "internalType": "bool",
          "name": "",
          "type": "bool"
        }
      ],
      "stateMutability": "nonpayable",
      "type": "function"
    },
    {
      "inputs": [
        {
          "internalType": "uint32",
          "name": "",
          "type": "uint32"
        }
      ],
      "name": "destinationGas",
      "outputs": [
        {
          "internalType": "uint256",
          "name": "",
          "type": "uint256"
        }
      ],
      "stateMutability": "view",
      "type": "function"
    },
    {
      "inputs": [],
      "name": "domains",
      "outputs": [
        {
          "internalType": "uint32[]",
          "name": "",
          "type": "uint32[]"
        }
      ],
      "stateMutability": "view",
      "type": "function"
    },
    {
      "inputs": [
        {
          "internalType": "uint32",
          "name": "_domain",
          "type": "uint32"
        },
        {
          "internalType": "bytes32",
          "name": "_router",
          "type": "bytes32"
        }
      ],
      "name": "enrollRemoteRouter",
      "outputs": [],
      "stateMutability": "nonpayable",
      "type": "function"
    },
    {
      "inputs": [
        {
          "internalType": "uint32[]",
          "name": "_domains",
          "type": "uint32[]"
        },
        {
          "internalType": "bytes32[]",
          "name": "_addresses",
          "type": "bytes32[]"
        }
      ],
      "name": "enrollRemoteRouters",
      "outputs": [],
      "stateMutability": "nonpayable",
      "type": "function"
    },
    {
      "inputs": [
        {
          "internalType": "uint32",
          "name": "_origin",
          "type": "uint32"
        },
        {
          "internalType": "bytes32",
          "name": "_sender",
          "type": "bytes32"
        },
        {
          "internalType": "bytes",
          "name": "_message",
          "type": "bytes"
        }
      ],
      "name": "handle",
      "outputs": [],
      "stateMutability": "payable",
      "type": "function"
    },
    {
      "inputs": [],
      "name": "hook",
      "outputs": [
        {
          "internalType": "contract IPostDispatchHook",
          "name": "",
          "type": "address"
        }
      ],
      "stateMutability": "view",
      "type": "function"
    },
    {
      "inputs": [
        {
          "internalType": "address",
          "name": "",
          "type": "address"
        },
        {
          "internalType": "uint256",
          "name": "",
          "type": "uint256"
        }
      ],
      "name": "increaseAllowance",
      "outputs": [
        {
          "internalType": "bool",
          "name": "",
          "type": "bool"
        }
      ],
      "stateMutability": "nonpayable",
      "type": "function"
    },
    {
      "inputs": [
        {
          "internalType": "uint256",
          "name": "_totalSupply",
          "type": "uint256"
        },
        {
          "internalType": "string",
          "name": "_name",
          "type": "string"
        },
        {
          "internalType": "string",
          "name": "_symbol",
          "type": "string"
        }
      ],
      "name": "initialize",
      "outputs": [],
      "stateMutability": "nonpayable",
      "type": "function"
    },
    {
      "inputs": [],
      "name": "interchainSecurityModule",
      "outputs": [
        {
          "internalType": "contract IInterchainSecurityModule",
          "name": "",
          "type": "address"
        }
      ],
      "stateMutability": "view",
      "type": "function"
    },
    {
      "inputs": [],
      "name": "localDomain",
      "outputs": [
        {
          "internalType": "uint32",
          "name": "",
          "type": "uint32"
        }
      ],
      "stateMutability": "view",
      "type": "function"
    },
    {
      "inputs": [],
      "name": "mailbox",
      "outputs": [
        {
          "internalType": "contract IMailbox",
          "name": "",
          "type": "address"
        }
      ],
      "stateMutability": "view",
      "type": "function"
    },
    {
      "inputs": [],
      "name": "name",
      "outputs": [
        {
          "internalType": "string",
          "name": "",
          "type": "string"
        }
      ],
      "stateMutability": "view",
      "type": "function"
    },
    {
      "inputs": [],
      "name": "owner",
      "outputs": [
        {
          "internalType": "address",
          "name": "",
          "type": "address"
        }
      ],
      "stateMutability": "view",
      "type": "function"
    },
    {
      "inputs": [
        {
          "internalType": "uint32",
          "name": "_destinationDomain",
          "type": "uint32"
        }
      ],
      "name": "quoteGasPayment",
      "outputs": [
        {
          "internalType": "uint256",
          "name": "_gasPayment",
          "type": "uint256"
        }
      ],
      "stateMutability": "view",
      "type": "function"
    },
    {
      "inputs": [],
      "name": "renounceOwnership",
      "outputs": [],
      "stateMutability": "nonpayable",
      "type": "function"
    },
    {
      "inputs": [
        {
          "internalType": "uint32",
          "name": "_domain",
          "type": "uint32"
        }
      ],
      "name": "routers",
      "outputs": [
        {
          "internalType": "bytes32",
          "name": "",
          "type": "bytes32"
        }
      ],
      "stateMutability": "view",
      "type": "function"
    },
    {
      "inputs": [
        {
          "internalType": "uint32",
          "name": "domain",
          "type": "uint32"
        },
        {
          "internalType": "uint256",
          "name": "gas",
          "type": "uint256"
        }
      ],
      "name": "setDestinationGas",
      "outputs": [],
      "stateMutability": "nonpayable",
      "type": "function"
    },
    {
      "inputs": [
        {
          "components": [
            {
              "internalType": "uint32",
              "name": "domain",
              "type": "uint32"
            },
            {
              "internalType": "uint256",
              "name": "gas",
              "type": "uint256"
            }
          ],
          "internalType": "struct GasRouter.GasRouterConfig[]",
          "name": "gasConfigs",
          "type": "tuple[]"
        }
      ],
      "name": "setDestinationGas",
      "outputs": [],
      "stateMutability": "nonpayable",
      "type": "function"
    },
    {
      "inputs": [
        {
          "internalType": "address",
          "name": "_hook",
          "type": "address"
        }
      ],
      "name": "setHook",
      "outputs": [],
      "stateMutability": "nonpayable",
      "type": "function"
    },
    {
      "inputs": [
        {
          "internalType": "address",
          "name": "_module",
          "type": "address"
        }
      ],
      "name": "setInterchainSecurityModule",
      "outputs": [],
      "stateMutability": "nonpayable",
      "type": "function"
    },
    {
      "inputs": [],
      "name": "symbol",
      "outputs": [
        {
          "internalType": "string",
          "name": "",
          "type": "string"
        }
      ],
      "stateMutability": "view",
      "type": "function"
    },
    {
      "inputs": [],
      "name": "totalSupply",
      "outputs": [
        {
          "internalType": "uint256",
          "name": "",
          "type": "uint256"
        }
      ],
      "stateMutability": "view",
      "type": "function"
    },
    {
      "inputs": [
        {
          "internalType": "address",
          "name": "",
          "type": "address"
        },
        {
          "internalType": "uint256",
          "name": "",
          "type": "uint256"
        }
      ],
      "name": "transfer",
      "outputs": [
        {
          "internalType": "bool",
          "name": "",
          "type": "bool"
        }
      ],
      "stateMutability": "nonpayable",
      "type": "function"
    },
    {
      "inputs": [
        {
          "internalType": "address",
          "name": "",
          "type": "address"
        },
        {
          "internalType": "address",
          "name": "",
          "type": "address"
        },
        {
          "internalType": "uint256",
          "name": "",
          "type": "uint256"
        }
      ],
      "name": "transferFrom",
      "outputs": [
        {
          "internalType": "bool",
          "name": "",
          "type": "bool"
        }
      ],
      "stateMutability": "nonpayable",
      "type": "function"
    },
    {
      "inputs": [
        {
          "internalType": "address",
          "name": "newOwner",
          "type": "address"
        }
      ],
      "name": "transferOwnership",
      "outputs": [],
      "stateMutability": "nonpayable",
      "type": "function"
    },
    {
      "inputs": [
        {
          "internalType": "uint32",
          "name": "_destination",
          "type": "uint32"
        },
        {
          "internalType": "bytes32",
          "name": "_recipient",
          "type": "bytes32"
        },
        {
          "internalType": "uint256",
          "name": "_amountOrId",
          "type": "uint256"
        }
      ],
      "name": "transferRemote",
      "outputs": [
        {
          "internalType": "bytes32",
          "name": "messageId",
          "type": "bytes32"
        }
      ],
      "stateMutability": "payable",
      "type": "function"
    },
    {
      "inputs": [
        {
          "internalType": "uint32",
          "name": "_domain",
          "type": "uint32"
        }
      ],
      "name": "unenrollRemoteRouter",
      "outputs": [],
      "stateMutability": "nonpayable",
      "type": "function"
    },
    {
      "inputs": [
        {
          "internalType": "uint32[]",
          "name": "_domains",
          "type": "uint32[]"
        }
      ],
      "name": "unenrollRemoteRouters",
      "outputs": [],
      "stateMutability": "nonpayable",
      "type": "function"
    }
  ],
  "bytecode": "0x60e06040523480156200001157600080fd5b50604051620025da380380620025da833981016040819052620000349162000181565b80808080806001600160a01b0381163b620000955760405162461bcd60e51b815260206004820152601e60248201527f4d61696c626f78436c69656e743a20696e76616c6964206d61696c626f780000604482015260640160405180910390fd5b6001600160a01b03821660808190526040805163234d8e3d60e21b81529051638d3638f4916004808201926020929091908290030181865afa158015620000e0573d6000803e3d6000fd5b505050506040513d601f19601f82011682018060405250810190620001069190620001d0565b63ffffffff1660a0526200011a336200012f565b50505060ff90931660c05250620001ff915050565b606580546001600160a01b038381166001600160a01b0319831681179093556040519116919082907f8be0079c531659141344cd1fd0a4f28419497f9722a3daafe3b4186f6b6457e090600090a35050565b600080604083850312156200019557600080fd5b825160ff81168114620001a757600080fd5b60208401519092506001600160a01b0381168114620001c557600080fd5b809150509250929050565b600060208284031215620001e357600080fd5b815163ffffffff81168114620001f857600080fd5b9392505050565b60805160a05160c0516123966200024460003960006102ee0152600061046c015260008181610528015281816108bb01528181611496015261177101526123966000f3fe6080604052600436106101fe5760003560e01c80637f5a7c7b1161011d578063b49c53a7116100b0578063e9198bf91161007f578063efae508a11610064578063efae508a146105c5578063f2ed8c53146105e5578063f2fde38b1461060557600080fd5b8063e9198bf914610585578063eedfca5f146105a557600080fd5b8063b49c53a7146104f6578063d5438eae14610516578063dd62ed3e1461054a578063de523cf31461056557600080fd5b806395d89b41116100ec57806395d89b41146104c1578063a457c2d71461022e578063a9059cbb1461022e578063b1bd6436146104d657600080fd5b80637f5a7c7b1461040f57806381b4e8b4146104475780638d3638f41461045a5780638da5cb5b146104a357600080fd5b80633dfd38731161019557806370a082311161016457806370a082311461038d578063715018a6146103ad57806371a15b38146103c2578063775313a1146103e257600080fd5b80633dfd387314610318578063440df4f41461033857806349d462ef1461035a57806356d5d4751461037a57600080fd5b806323b872dd116101d157806323b872dd1461029f5780632ead72f6146102ba578063313ce567146102da578063395093511461022e57600080fd5b806306fdde0314610203578063095ea7b31461022e5780630e72cc061461025e57806318160ddd14610280575b600080fd5b34801561020f57600080fd5b50610218610625565b6040516102259190611ba1565b60405180910390f35b34801561023a57600080fd5b5061024e610249366004611bd0565b6106b7565b6040519015158152602001610225565b34801561026a57600080fd5b5061027e610279366004611bfa565b6106f2565b005b34801561028c57600080fd5b506035545b604051908152602001610225565b3480156102ab57600080fd5b5061024e610249366004611c15565b3480156102c657600080fd5b506102916102d5366004611c65565b6107a6565b3480156102e657600080fd5b5060405160ff7f0000000000000000000000000000000000000000000000000000000000000000168152602001610225565b34801561032457600080fd5b5061027e610333366004611bfa565b6107c5565b34801561034457600080fd5b5061034d610879565b6040516102259190611c80565b34801561036657600080fd5b5061027e610375366004611cca565b61088a565b61027e610388366004611ce6565b6108b0565b34801561039957600080fd5b506102916103a8366004611bfa565b6109c7565b3480156103b957600080fd5b5061027e6109e7565b3480156103ce57600080fd5b5061027e6103dd366004611db2565b6109fb565b3480156103ee57600080fd5b506102916103fd366004611c65565b60fc6020526000908152604090205481565b34801561041b57600080fd5b5060975461042f906001600160a01b031681565b6040516001600160a01b039091168152602001610225565b610291610455366004611df4565b610a56565b34801561046657600080fd5b5061048e7f000000000000000000000000000000000000000000000000000000000000000081565b60405163ffffffff9091168152602001610225565b3480156104af57600080fd5b506065546001600160a01b031661042f565b3480156104cd57600080fd5b50610218610a64565b3480156104e257600080fd5b5061027e6104f1366004611e27565b610a73565b34801561050257600080fd5b5061027e610511366004611cca565b610afd565b34801561052257600080fd5b5061042f7f000000000000000000000000000000000000000000000000000000000000000081565b34801561055657600080fd5b50610291610249366004611e9c565b34801561057157600080fd5b5060985461042f906001600160a01b031681565b34801561059157600080fd5b5061027e6105a0366004611ecf565b610b0f565b3480156105b157600080fd5b5061027e6105c0366004611fde565b610bd4565b3480156105d157600080fd5b5061027e6105e0366004611c65565b610d02565b3480156105f157600080fd5b50610291610600366004611c65565b610d16565b34801561061157600080fd5b5061027e610620366004611bfa565b610d31565b6060603680546106349061204b565b80601f01602080910402602001604051908101604052809291908181526020018280546106609061204b565b80156106ad5780601f10610682576101008083540402835291602001916106ad565b820191906000526020600020905b81548152906001019060200180831161069057829003601f168201915b5050505050905090565b6040805180820182526002815261038360f41b6020820152905162461bcd60e51b81526000916106e991600401611ba1565b60405180910390fd5b806001600160a01b0381163b15158061071257506001600160a01b038116155b61076e5760405162461bcd60e51b815260206004820152602760248201527f4d61696c626f78436c69656e743a20696e76616c696420636f6e74726163742060448201526673657474696e6760c81b60648201526084016106e9565b610776610dbe565b506098805473ffffffffffffffffffffffffffffffffffffffff19166001600160a01b0392909216919091179055565b6000806107bd60c963ffffffff80861690610e1816565b949350505050565b806001600160a01b0381163b1515806107e557506001600160a01b038116155b6108415760405162461bcd60e51b815260206004820152602760248201527f4d61696c626f78436c69656e743a20696e76616c696420636f6e74726163742060448201526673657474696e6760c81b60648201526084016106e9565b610849610dbe565b506097805473ffffffffffffffffffffffffffffffffffffffff19166001600160a01b0392909216919091179055565b606061088560c9610e31565b905090565b610892610dbe565b63ffffffff91909116600090815260fc6020526040902055565b5050565b336001600160a01b037f000000000000000000000000000000000000000000000000000000000000000016146109325760405162461bcd60e51b815260206004820152602160248201527f4d61696c626f78436c69656e743a2073656e646572206e6f74206d61696c626f6044820152600f60fb1b60648201526084016106e9565b600061093d85610eec565b90508381146109b45760405162461bcd60e51b815260206004820152602560248201527f456e726f6c6c656420726f7574657220646f6573206e6f74206d61746368207360448201527f656e64657200000000000000000000000000000000000000000000000000000060648201526084016106e9565b6109c085858585610f38565b5050505050565b6001600160a01b0381166000908152603360205260408120545b92915050565b6109ef610dbe565b6109f96000610fc2565b565b610a03610dbe565b8060005b81811015610a5057610a3e848483818110610a2457610a24612085565b9050602002016020810190610a399190611c65565b611021565b610a496001826120b1565b9050610a07565b50505050565b60006107bd8484843461105c565b6060603780546106349061204b565b610a7b610dbe565b60005b81811015610af857610ae6838383818110610a9b57610a9b612085565b610ab19260206040909202019081019150611c65565b848484818110610ac357610ac3612085565b9050604002016020013563ffffffff909116600090815260fc6020526040902055565b610af16001826120b1565b9050610a7e565b505050565b610b05610dbe565b6108ac82826110cb565b610b17610dbe565b828114610b665760405162461bcd60e51b815260206004820152600760248201527f216c656e6774680000000000000000000000000000000000000000000000000060448201526064016106e9565b8260005b81811015610bcc57610bba868683818110610b8757610b87612085565b9050602002016020810190610b9c9190611c65565b858584818110610bae57610bae612085565b905060200201356110cb565b610bc56001826120b1565b9050610b6a565b505050505050565b600054610100900460ff1615808015610bf45750600054600160ff909116105b80610c0e5750303b158015610c0e575060005460ff166001145b610c805760405162461bcd60e51b815260206004820152602e60248201527f496e697469616c697a61626c653a20636f6e747261637420697320616c72656160448201527f647920696e697469616c697a656400000000000000000000000000000000000060648201526084016106e9565b6000805460ff191660011790558015610ca3576000805461ff0019166101001790555b610cad83836110e1565b610cb73385611156565b8015610a50576000805461ff0019169055604051600181527f7f26b83ff96e1f2b6a682f133852f6798a09c465da95921460cefb38474024989060200160405180910390a150505050565b610d0a610dbe565b610d1381611021565b50565b60006109e18260405180602001604052806000815250611217565b610d39610dbe565b6001600160a01b038116610db55760405162461bcd60e51b815260206004820152602660248201527f4f776e61626c653a206e6577206f776e657220697320746865207a65726f206160448201527f646472657373000000000000000000000000000000000000000000000000000060648201526084016106e9565b610d1381610fc2565b6065546001600160a01b031633146109f95760405162461bcd60e51b815260206004820181905260248201527f4f776e61626c653a2063616c6c6572206973206e6f7420746865206f776e657260448201526064016106e9565b600080610e258484611230565b915091505b9250929050565b60606000610e3e8361126a565b9050805167ffffffffffffffff811115610e5a57610e5a611f3b565b604051908082528060200260200182016040528015610e83578160200160208202803683370190505b50915060005b8151811015610ee557818181518110610ea457610ea4612085565b6020026020010151838281518110610ebe57610ebe612085565b63ffffffff9092166020928302919091019091015280610edd816120c4565b915050610e89565b5050919050565b60008080610f0460c963ffffffff80871690610e1816565b9150915081610f1285611305565b90610f305760405162461bcd60e51b81526004016106e99190611ba1565b509392505050565b6000610f44838361133c565b90506000610f52848461135b565b9050366000610f61868661136b565b91509150610f77610f6f8590565b84848461137b565b838863ffffffff167fba20947a325f450d232530e5f5fce293e7963499d5309a07cee84a269f2f15a685604051610fb091815260200190565b60405180910390a35050505050505050565b606580546001600160a01b0383811673ffffffffffffffffffffffffffffffffffffffff19831681179093556040519116919082907f8be0079c531659141344cd1fd0a4f28419497f9722a3daafe3b4186f6b6457e090600090a35050565b61103560c963ffffffff8084169061138516565b61103e82611305565b906108ac5760405162461bcd60e51b81526004016106e99190611ba1565b60008061106884611391565b905061107f868461107a8888866113b1565b6113e0565b9150848663ffffffff167fd229aacb94204188fe8042965fa6b269c62dc5818b21238779ab64bdd17efeec866040516110ba91815260200190565b60405180910390a350949350505050565b6108ac60c963ffffffff80851690849061140316565b600054610100900460ff1661114c5760405162461bcd60e51b815260206004820152602b60248201527f496e697469616c697a61626c653a20636f6e7472616374206973206e6f74206960448201526a6e697469616c697a696e6760a81b60648201526084016106e9565b6108ac828261140e565b6001600160a01b0382166111ac5760405162461bcd60e51b815260206004820152601f60248201527f45524332303a206d696e7420746f20746865207a65726f20616464726573730060448201526064016106e9565b80603560008282546111be91906120b1565b90915550506001600160a01b0382166000818152603360209081526040808320805486019055518481527fddf252ad1be2c89b69c2b068fc378daa952ba7f163c4a11628f55a4df523b3ef910160405180910390a35050565b60008061122384610eec565b90506107bd848285611492565b600081815260028301602052604081205481908061125f576112528585611559565b925060009150610e2a9050565b600192509050610e2a565b6060600061127783611565565b90508067ffffffffffffffff81111561129257611292611f3b565b6040519080825280602002602001820160405280156112bb578160200160208202803683370190505b50915060005b81811015610ee5576112d38482611570565b60001c8382815181106112e8576112e8612085565b6020908102919091010152806112fd816120c4565b9150506112c1565b60606113168263ffffffff1661157c565b60405160200161132691906120dd565b6040516020818303038152906040529050919050565b600061134b6020828486612122565b6113549161214c565b9392505050565b600061134b604060208486612122565b366000610e258360408187612122565b610a508484611156565b6000611354838361161c565b606061139d3383611639565b505060408051602081019091526000815290565b60608383836040516020016113c89392919061216a565b60405160208183030381529060405290509392505050565b6000806113ec85610eec565b90506113fa8582868661176d565b95945050505050565b610a50838383611837565b600054610100900460ff166114795760405162461bcd60e51b815260206004820152602b60248201527f496e697469616c697a61626c653a20636f6e7472616374206973206e6f74206960448201526a6e697469616c697a696e6760a81b60648201526084016106e9565b603661148583826121dd565b506037610af882826121dd565b60007f00000000000000000000000000000000000000000000000000000000000000006001600160a01b03166381d2ea958585856114cf89611854565b6097546040517fffffffff0000000000000000000000000000000000000000000000000000000060e088901b16815261151895949392916001600160a01b03169060040161229d565b602060405180830381865afa158015611535573d6000803e3d6000fd5b505050506040513d601f19601f820116820180604052508101906107bd91906122f0565b60006113548383611876565b60006109e18261188e565b60006113548383611898565b60606000611589836118c2565b600101905060008167ffffffffffffffff8111156115a9576115a9611f3b565b6040519080825280601f01601f1916602001820160405280156115d3576020820181803683370190505b5090508181016020015b600019017f3031323334353637383961626364656600000000000000000000000000000000600a86061a8153600a85049450846115dd57509392505050565b6000818152600283016020526040812081905561135483836119a4565b6001600160a01b0382166116995760405162461bcd60e51b815260206004820152602160248201527f45524332303a206275726e2066726f6d20746865207a65726f206164647265736044820152607360f81b60648201526084016106e9565b6001600160a01b0382166000908152603360205260409020548181101561170d5760405162461bcd60e51b815260206004820152602260248201527f45524332303a206275726e20616d6f756e7420657863656564732062616c616e604482015261636560f01b60648201526084016106e9565b6001600160a01b03831660008181526033602090815260408083208686039055603580548790039055518581529192917fddf252ad1be2c89b69c2b068fc378daa952ba7f163c4a11628f55a4df523b3ef910160405180910390a3505050565b60007f00000000000000000000000000000000000000000000000000000000000000006001600160a01b03166310b83dc0848787866117ab8b611854565b6097546040517fffffffff0000000000000000000000000000000000000000000000000000000060e089901b1681526117f495949392916001600160a01b03169060040161229d565b60206040518083038185885af1158015611812573d6000803e3d6000fd5b50505050506040513d601f19601f820116820180604052508101906113fa91906122f0565b600082815260028401602052604081208290556107bd84846119b0565b63ffffffff8116600090815260fc60205260409020546060906109e1906119bc565b60008181526001830160205260408120541515611354565b60006109e1825490565b60008260000182815481106118af576118af612085565b9060005260206000200154905092915050565b6000807a184f03e93ff9f4daa797ed6e38ed64bf6a1f010000000000000000831061190b577a184f03e93ff9f4daa797ed6e38ed64bf6a1f010000000000000000830492506040015b6d04ee2d6d415b85acef81000000008310611937576d04ee2d6d415b85acef8100000000830492506020015b662386f26fc10000831061195557662386f26fc10000830492506010015b6305f5e100831061196d576305f5e100830492506008015b612710831061198157612710830492506004015b60648310611993576064830492506002015b600a83106109e15760010192915050565b600061135483836119da565b60006113548383611acd565b60606109e16000833360405180602001604052806000815250611b1c565b60008181526001830160205260408120548015611ac35760006119fe600183612309565b8554909150600090611a1290600190612309565b9050818114611a77576000866000018281548110611a3257611a32612085565b9060005260206000200154905080876000018481548110611a5557611a55612085565b6000918252602080832090910192909255918252600188019052604090208390555b8554869080611a8857611a8861231c565b6001900381819060005260206000200160009055905585600101600086815260200190815260200160002060009055600193505050506109e1565b60009150506109e1565b6000818152600183016020526040812054611b14575081546001818101845560008481526020808220909301849055845484825282860190935260409020919091556109e1565b5060006109e1565b6060600185858585604051602001611b38959493929190612332565b6040516020818303038152906040529050949350505050565b60005b83811015611b6c578181015183820152602001611b54565b50506000910152565b60008151808452611b8d816020860160208601611b51565b601f01601f19169290920160200192915050565b6020815260006113546020830184611b75565b80356001600160a01b0381168114611bcb57600080fd5b919050565b60008060408385031215611be357600080fd5b611bec83611bb4565b946020939093013593505050565b600060208284031215611c0c57600080fd5b61135482611bb4565b600080600060608486031215611c2a57600080fd5b611c3384611bb4565b9250611c4160208501611bb4565b9150604084013590509250925092565b803563ffffffff81168114611bcb57600080fd5b600060208284031215611c7757600080fd5b61135482611c51565b6020808252825182820181905260009190848201906040850190845b81811015611cbe57835163ffffffff1683529284019291840191600101611c9c565b50909695505050505050565b60008060408385031215611cdd57600080fd5b611bec83611c51565b60008060008060608587031215611cfc57600080fd5b611d0585611c51565b935060208501359250604085013567ffffffffffffffff80821115611d2957600080fd5b818701915087601f830112611d3d57600080fd5b813581811115611d4c57600080fd5b886020828501011115611d5e57600080fd5b95989497505060200194505050565b60008083601f840112611d7f57600080fd5b50813567ffffffffffffffff811115611d9757600080fd5b6020830191508360208260051b8501011115610e2a57600080fd5b60008060208385031215611dc557600080fd5b823567ffffffffffffffff811115611ddc57600080fd5b611de885828601611d6d565b90969095509350505050565b600080600060608486031215611e0957600080fd5b611e1284611c51565b95602085013595506040909401359392505050565b60008060208385031215611e3a57600080fd5b823567ffffffffffffffff80821115611e5257600080fd5b818501915085601f830112611e6657600080fd5b813581811115611e7557600080fd5b8660208260061b8501011115611e8a57600080fd5b60209290920196919550909350505050565b60008060408385031215611eaf57600080fd5b611eb883611bb4565b9150611ec660208401611bb4565b90509250929050565b60008060008060408587031215611ee557600080fd5b843567ffffffffffffffff80821115611efd57600080fd5b611f0988838901611d6d565b90965094506020870135915080821115611f2257600080fd5b50611f2f87828801611d6d565b95989497509550505050565b634e487b7160e01b600052604160045260246000fd5b600082601f830112611f6257600080fd5b813567ffffffffffffffff80821115611f7d57611f7d611f3b565b604051601f8301601f19908116603f01168101908282118183101715611fa557611fa5611f3b565b81604052838152866020858801011115611fbe57600080fd5b836020870160208301376000602085830101528094505050505092915050565b600080600060608486031215611ff357600080fd5b83359250602084013567ffffffffffffffff8082111561201257600080fd5b61201e87838801611f51565b9350604086013591508082111561203457600080fd5b5061204186828701611f51565b9150509250925092565b600181811c9082168061205f57607f821691505b60208210810361207f57634e487b7160e01b600052602260045260246000fd5b50919050565b634e487b7160e01b600052603260045260246000fd5b634e487b7160e01b600052601160045260246000fd5b808201808211156109e1576109e161209b565b6000600182016120d6576120d661209b565b5060010190565b7f4e6f20726f7574657220656e726f6c6c656420666f7220646f6d61696e3a200081526000825161211581601f850160208701611b51565b91909101601f0192915050565b6000808585111561213257600080fd5b8386111561213f57600080fd5b5050820193919092039150565b803560208310156109e157600019602084900360031b1b1692915050565b83815282602082015260008251612188816040850160208701611b51565b91909101604001949350505050565b601f821115610af857600081815260208120601f850160051c810160208610156121be5750805b601f850160051c820191505b81811015610bcc578281556001016121ca565b815167ffffffffffffffff8111156121f7576121f7611f3b565b61220b81612205845461204b565b84612197565b602080601f83116001811461224057600084156122285750858301515b600019600386901b1c1916600185901b178555610bcc565b600085815260208120601f198616915b8281101561226f57888601518255948401946001909101908401612250565b508582101561228d5787850151600019600388901b60f8161c191681555b5050505050600190811b01905550565b63ffffffff8616815284602082015260a0604082015260006122c260a0830186611b75565b82810360608401526122d48186611b75565b9150506001600160a01b03831660808301529695505050505050565b60006020828403121561230257600080fd5b5051919050565b818103818111156109e1576109e161209b565b634e487b7160e01b600052603160045260246000fd5b61ffff60f01b8660f01b1681528460028201528360228201526bffffffffffffffffffffffff198360601b16604282015260008251612378816056850160208701611b51565b91909101605601969550505050505056fea164736f6c6343000813000a",
  "linkReferences": {},
  "deployedLinkReferences": {}
}