{
  "_format": "hh-sol-artifact-1",
  "contractName": "FHEVMFacilitator",
  "sourceName": "contracts/FHEVMFacilitator.sol",
  "abi": [
    {
      "inputs": [
        {
          "internalType": "contract IGhoToken",
          "name": "_privateGho",
          "type": "address"
        },
        {
          "internalType": "contract IERC20",
          "name": "_usdcToken",
          "type": "address"
        },
        {
          "internalType": "contract IERC20",
          "name": "_hypGHOToken",
          "type": "address"
        }
      ],
      "stateMutability": "nonpayable",
      "type": "constructor"
    },
    {
      "inputs": [],
      "name": "InvalidShortString",
      "type": "error"
    },
    {
      "inputs": [
        {
          "internalType": "string",
          "name": "str",
          "type": "string"
        }
      ],
      "name": "StringTooLong",
      "type": "error"
    },
    {
      "anonymous": false,
      "inputs": [],
      "name": "EIP712DomainChanged",
      "type": "event"
    },
    {
      "inputs": [
        {
          "internalType": "address",
          "name": "account",
          "type": "address"
        },
        {
          "internalType": "bytes",
          "name": "encryptedAmount",
          "type": "bytes"
        }
      ],
      "name": "burnEncryptedGho",
      "outputs": [],
      "stateMutability": "nonpayable",
      "type": "function"
    },
    {
      "inputs": [
        {
          "internalType": "address",
          "name": "user",
          "type": "address"
        }
      ],
      "name": "collateralSupplied",
      "outputs": [
        {
          "internalType": "euint32",
          "name": "collateral",
          "type": "uint256"
        }
      ],
      "stateMutability": "view",
      "type": "function"
    },
    {
      "inputs": [],
      "name": "eip712Domain",
      "outputs": [
        {
          "internalType": "bytes1",
          "name": "fields",
          "type": "bytes1"
        },
        {
          "internalType": "string",
          "name": "name",
          "type": "string"
        },
        {
          "internalType": "string",
          "name": "version",
          "type": "string"
        },
        {
          "internalType": "uint256",
          "name": "chainId",
          "type": "uint256"
        },
        {
          "internalType": "address",
          "name": "verifyingContract",
          "type": "address"
        },
        {
          "internalType": "bytes32",
          "name": "salt",
          "type": "bytes32"
        },
        {
          "internalType": "uint256[]",
          "name": "extensions",
          "type": "uint256[]"
        }
      ],
      "stateMutability": "view",
      "type": "function"
    },
    {
      "inputs": [
        {
          "internalType": "address",
          "name": "account",
          "type": "address"
        },
        {
          "internalType": "bytes32",
          "name": "publicKey",
          "type": "bytes32"
        },
        {
          "internalType": "bytes",
          "name": "signature",
          "type": "bytes"
        }
      ],
      "name": "getMaxMintableAmount",
      "outputs": [
        {
          "internalType": "bytes",
          "name": "",
          "type": "bytes"
        }
      ],
      "stateMutability": "view",
      "type": "function"
    },
    {
      "inputs": [
        {
          "internalType": "address",
          "name": "user",
          "type": "address"
        }
      ],
      "name": "ghoBorrowed",
      "outputs": [
        {
          "internalType": "euint32",
          "name": "borrowed",
          "type": "uint256"
        }
      ],
      "stateMutability": "view",
      "type": "function"
    },
    {
      "inputs": [],
      "name": "hypGhoToken",
      "outputs": [
        {
          "internalType": "contract IERC20",
          "name": "",
          "type": "address"
        }
      ],
      "stateMutability": "view",
      "type": "function"
    },
    {
      "inputs": [
        {
          "internalType": "address",
          "name": "account",
          "type": "address"
        },
        {
          "internalType": "bytes",
          "name": "encryptedAmount",
          "type": "bytes"
        }
      ],
      "name": "mintEncryptedGho",
      "outputs": [],
      "stateMutability": "nonpayable",
      "type": "function"
    },
    {
      "inputs": [],
      "name": "privateGho",
      "outputs": [
        {
          "internalType": "contract IGhoToken",
          "name": "",
          "type": "address"
        }
      ],
      "stateMutability": "view",
      "type": "function"
    },
    {
      "inputs": [
        {
          "internalType": "uint256",
          "name": "amount",
          "type": "uint256"
        }
      ],
      "name": "supplyUsdc",
      "outputs": [],
      "stateMutability": "nonpayable",
      "type": "function"
    },
    {
      "inputs": [],
      "name": "usdcToken",
      "outputs": [
        {
          "internalType": "contract IERC20",
          "name": "",
          "type": "address"
        }
      ],
      "stateMutability": "view",
      "type": "function"
    },
    {
      "inputs": [
        {
          "internalType": "uint256",
          "name": "amount",
          "type": "uint256"
        }
      ],
      "name": "withdrawUsdc",
      "outputs": [],
      "stateMutability": "nonpayable",
      "type": "function"
    }
  ],
  "bytecode": "0x6101606040523480156200001257600080fd5b5060405162001cbb38038062001cbb83398101604081905262000035916200020f565b604080518082018252601081526f232422ab26a330b1b4b634ba30ba37b960811b602080830191909152825180840190935260018352603160f81b908301529081816200008482600062000171565b610120526200009581600162000171565b61014052815160208084019190912060e052815190820120610100524660a0526200012360e05161010051604080517f8b73c3c69bb8fe3d512ecc4cf759cc79239f7b179b0ffacaa9a75d522b39400f60208201529081019290925260608201524660808201523060a082015260009060c00160405160208183030381529060405280519060200120905090565b60805250503060c0525050600280546001600160a01b039485166001600160a01b03199182161790915560038054938516938216939093179092556004805491909316911617905562000449565b600060208351101562000191576200018983620001aa565b9050620001a4565b816200019e848262000308565b5060ff90505b92915050565b600080829050601f81511115620001e1578260405163305a27a960e01b8152600401620001d89190620003d4565b60405180910390fd5b8051620001ee8262000424565b179392505050565b6001600160a01b03811681146200020c57600080fd5b50565b6000806000606084860312156200022557600080fd5b83516200023281620001f6565b60208501519093506200024581620001f6565b60408501519092506200025881620001f6565b809150509250925092565b634e487b7160e01b600052604160045260246000fd5b600181811c908216806200028e57607f821691505b602082108103620002af57634e487b7160e01b600052602260045260246000fd5b50919050565b601f8211156200030357600081815260208120601f850160051c81016020861015620002de5750805b601f850160051c820191505b81811015620002ff57828155600101620002ea565b5050505b505050565b81516001600160401b0381111562000324576200032462000263565b6200033c8162000335845462000279565b84620002b5565b602080601f8311600181146200037457600084156200035b5750858301515b600019600386901b1c1916600185901b178555620002ff565b600085815260208120601f198616915b82811015620003a55788860151825594840194600190910190840162000384565b5085821015620003c45787850151600019600388901b60f8161c191681555b5050505050600190811b01905550565b600060208083528351808285015260005b818110156200040357858101830151858201604001528201620003e5565b506000604082860101526040601f19601f8301168501019250505092915050565b80516020808301519190811015620002af5760001960209190910360031b1b16919050565b60805160a05160c05160e051610100516101205161014051611817620004a46000396000610813015260006107e901526000610df001526000610dc801526000610d2301526000610d4d01526000610d7701526118176000f3fe608060405234801561001057600080fd5b50600436106100c95760003560e01c80637195d2f511610081578063e090605b1161005b578063e090605b146101b5578063e3821211146101c8578063eabdafa7146101db57600080fd5b80637195d2f51461015957806378534ec61461018757806384b0196e1461019a57600080fd5b80631ac9c76e116100b25780631ac9c76e14610113578063414520ed146101265780635b06dece1461014657600080fd5b806311eac855146100ce578063125bac00146100fe575b600080fd5b6003546100e1906001600160a01b031681565b6040516001600160a01b0390911681526020015b60405180910390f35b61011161010c366004611416565b6101fb565b005b6004546100e1906001600160a01b031681565b61013961013436600461148d565b610303565b6040516100f59190611537565b610111610154366004611416565b610502565b61017961016736600461154a565b60076020526000908152604090205481565b6040519081526020016100f5565b610111610195366004611565565b61061d565b6101a26107db565b6040516100f597969594939291906115b8565b6002546100e1906001600160a01b031681565b6101116101d6366004611565565b610863565b6101796101e936600461154a565b60066020526000908152604090205481565b6003546040516323b872dd60e01b8152336004820152306024820152604481018390526001600160a01b03909116906323b872dd906064016020604051808303816000875af1158015610252573d6000803e3d6000fd5b505050506040513d601f19601f82011682018060405250810190610276919061164e565b6102c75760405162461bcd60e51b815260206004820152600f60248201527f5472616e73666572206661696c6564000000000000000000000000000000000060448201526064015b60405180910390fd5b60006102d2826109e3565b336000908152600660205260409020549091506102ef90826109f6565b336000908152600660205260409020555050565b60608383838080601f0160208091040260200160405190810160405280939291908181526020018383808284376000920182905250604080517f051d137ae0e1fae6e3b6559fed4442b35a85a9a39789838ad5c9ea05e7da2dce60208201529081018790529093506103909250606001905060405160208183030381529060405280519060200120610a2f565b9050600061039e8284610a5c565b90506001600160a01b038116331461041e5760405162461bcd60e51b815260206004820152603160248201527f454950373132207369676e657220616e64207472616e73616374696f6e20736960448201527f676e657220646f206e6f74206d6174636800000000000000000000000000000060648201526084016102be565b6001600160a01b0389166000908152600760209081526040808320546006909252822054909161044e8284610a80565b905060006104e5826104e06104d8600460009054906101000a90046001600160a01b03166001600160a01b03166318160ddd6040518163ffffffff1660e01b8152600401602060405180830381865afa1580156104af573d6000803e3d6000fd5b505050506040513d601f19601f820116820180604052508101906104d39190611670565b6109e3565b600554610a80565b610ab2565b90506104f1818d610ae4565b9d9c50505050505050505050505050565b336000908152600660205260408120549061051c836109e3565b9050600061052a8284610af0565b905061053581610b2c565b6105815760405162461bcd60e51b815260206004820152601760248201527f496e73756666696369656e7420636f6c6c61746572616c00000000000000000060448201526064016102be565b61058b8383610a80565b336000818152600660205260409081902092909255600354915163a9059cbb60e01b81526004810191909152602481018690526001600160a01b039091169063a9059cbb906044016020604051808303816000875af11580156105f2573d6000803e3d6000fd5b505050506040513d601f19601f82011682018060405250810190610616919061164e565b5050505050565b600061065e83838080601f016020809104026020016040519081016040528093929190818152602001838380828437600092019190915250610b3f92505050565b6001600160a01b038516600090815260076020526040812054919250906106a79061068990846109f6565b6001600160a01b038716600090815260066020526040902054610af0565b90506106b5600554836109f6565b600581905550600061071e600554610719600460009054906101000a90046001600160a01b03166001600160a01b03166318160ddd6040518163ffffffff1660e01b8152600401602060405180830381865afa1580156104af573d6000803e3d6000fd5b610af0565b60025460405163b510391f60e01b81529192506001600160a01b03169063b510391f9061075390899089908990600401611689565b600060405180830381600087803b15801561076d57600080fd5b505af1158015610781573d6000803e3d6000fd5b5050506001600160a01b0387166000908152600760205260409020546107a89150846109f6565b6001600160a01b0387166000908152600760205260409020556107ca82610b4c565b6107d381610b4c565b505050505050565b60006060808280808361080e7f000000000000000000000000000000000000000000000000000000000000000083610b58565b6108397f00000000000000000000000000000000000000000000000000000000000000006001610b58565b60408051600080825260208201909252600f60f81b9b939a50919850469750309650945092509050565b60006108a483838080601f016020809104026020016040519081016040528093929190818152602001838380828437600092019190915250610b3f92505050565b60025460405163260a235360e11b81526001600160a01b03878116600483015292935060009261091f928592911690634c1446a6906024016020604051808303816000875af11580156108fb573d6000803e3d6000fd5b505050506040513d601f19601f820116820180604052508101906107199190611670565b905061092a81610b4c565b600254604051631ac4824360e31b81526001600160a01b039091169063d62412189061095e90889088908890600401611689565b600060405180830381600087803b15801561097857600080fd5b505af115801561098c573d6000803e3d6000fd5b5050506001600160a01b0386166000908152600760205260409020546109b3915083610a80565b6001600160a01b0386166000908152600760205260409020556005546109d99083610a80565b6005555050505050565b60006109f0826002610c03565b92915050565b600082610a0a57610a0760006109e3565b92505b81610a1c57610a1960006109e3565b91505b610a2883836000610c7c565b9392505050565b60006109f0610a3c610d16565b8360405161190160f01b8152600281019290925260228201526042902090565b6000806000610a6b8585610e46565b91509150610a7881610e8b565b509392505050565b600082610a9457610a9160006109e3565b92505b81610aa657610aa360006109e3565b91505b610a2883836000610fd5565b600082610ac657610ac360006109e3565b92505b81610ad857610ad560006109e3565b91505b610a2883836000611029565b6060610a28838361107d565b600082610b0457610b0160006109e3565b92505b81610b1657610b1360006109e3565b91505b610a28610b25848460006110ec565b6000611140565b6000610b378261117c565b151592915050565b60006109f08260026111e0565b610b5581611276565b50565b606060ff8314610b7257610b6b836112eb565b90506109f0565b818054610b7e906116de565b80601f0160208091040260200160405190810160405280929190818152602001828054610baa906116de565b8015610bf75780601f10610bcc57610100808354040283529160200191610bf7565b820191906000526020600020905b815481529060010190602001808311610bda57829003601f168201915b505050505090506109f0565b604051631ce2e8d760e31b8152600481018390526001600160f81b031960f883901b166024820152600090605d9063e71746b8906044015b602060405180830381865afa158015610c58573d6000803e3d6000fd5b505050506040513d601f19601f82011682018060405250810190610a289190611670565b6000808215610c905750600160f81b610c94565b5060005b60405163f953e42760e01b815260048101869052602481018590526001600160f81b031982166044820152605d9063f953e427906064015b602060405180830381865afa158015610ce9573d6000803e3d6000fd5b505050506040513d601f19601f82011682018060405250810190610d0d9190611670565b95945050505050565b6000306001600160a01b037f000000000000000000000000000000000000000000000000000000000000000016148015610d6f57507f000000000000000000000000000000000000000000000000000000000000000046145b15610d9957507f000000000000000000000000000000000000000000000000000000000000000090565b610e41604080517f8b73c3c69bb8fe3d512ecc4cf759cc79239f7b179b0ffacaa9a75d522b39400f60208201527f0000000000000000000000000000000000000000000000000000000000000000918101919091527f000000000000000000000000000000000000000000000000000000000000000060608201524660808201523060a082015260009060c00160405160208183030381529060405280519060200120905090565b905090565b6000808251604103610e7c5760208301516040840151606085015160001a610e708782858561132a565b94509450505050610e84565b506000905060025b9250929050565b6000816004811115610e9f57610e9f611718565b03610ea75750565b6001816004811115610ebb57610ebb611718565b03610f085760405162461bcd60e51b815260206004820152601860248201527f45434453413a20696e76616c6964207369676e6174757265000000000000000060448201526064016102be565b6002816004811115610f1c57610f1c611718565b03610f695760405162461bcd60e51b815260206004820152601f60248201527f45434453413a20696e76616c6964207369676e6174757265206c656e6774680060448201526064016102be565b6003816004811115610f7d57610f7d611718565b03610b555760405162461bcd60e51b815260206004820152602260248201527f45434453413a20696e76616c6964207369676e6174757265202773272076616c604482015261756560f01b60648201526084016102be565b6000808215610fe95750600160f81b610fed565b5060005b604051638c14cc2160e01b815260048101869052602481018590526001600160f81b031982166044820152605d90638c14cc2190606401610ccc565b600080821561103d5750600160f81b611041565b5060005b604051632a1f7ab160e21b815260048101869052602481018590526001600160f81b031982166044820152605d9063a87deac490606401610ccc565b60405163d6ad57cd60e01b81526004810183905260248101829052606090605d9063d6ad57cd90604401600060405180830381865afa1580156110c4573d6000803e3d6000fd5b505050506040513d6000823e601f3d908101601f19168201604052610a28919081019061172e565b60008082156111005750600160f81b611104565b5060005b6040516334a6d7b960e11b815260048101869052602481018590526001600160f81b031982166044820152605d9063694daf7290606401610ccc565b60405163025f346960e51b8152600481018390526001600160f81b031960f883901b166024820152600090605d90634be68d2090604401610c3b565b6040516301693b9160e61b815260048101829052600090605d90635a4ee44090602401602060405180830381865afa1580156111bc573d6000803e3d6000fd5b505050506040513d601f19601f820116820180604052508101906109f09190611670565b600080838360f81b6040516020016111f99291906117db565b60408051601f1981840301815290829052630964a5d960e31b82529150605d90634b252ec89061122d908490600401611537565b602060405180830381865afa15801561124a573d6000803e3d6000fd5b505050506040513d601f19601f8201168201806040525081019061126e9190611670565b949350505050565b60008160405160240161128b91815260200190565b60408051601f198184030181529190526020810180517bffffffffffffffffffffffffffffffffffffffffffffffffffffffff16634ee071a160e01b1781528151919250605d9060009081908490845afa6112e557600080fd5b50505050565b606060006112f8836113ee565b604080516020808252818301909252919250600091906020820181803683375050509182525060208101929092525090565b6000807f7fffffffffffffffffffffffffffffff5d576e7357a4501ddfe92f46681b20a083111561136157506000905060036113e5565b6040805160008082526020820180845289905260ff881692820192909252606081018690526080810185905260019060a0016020604051602081039080840390855afa1580156113b5573d6000803e3d6000fd5b5050604051601f1901519150506001600160a01b0381166113de576000600192509250506113e5565b9150600090505b94509492505050565b600060ff8216601f8111156109f057604051632cd44ac360e21b815260040160405180910390fd5b60006020828403121561142857600080fd5b5035919050565b80356001600160a01b038116811461144657600080fd5b919050565b60008083601f84011261145d57600080fd5b50813567ffffffffffffffff81111561147557600080fd5b602083019150836020828501011115610e8457600080fd5b600080600080606085870312156114a357600080fd5b6114ac8561142f565b935060208501359250604085013567ffffffffffffffff8111156114cf57600080fd5b6114db8782880161144b565b95989497509550505050565b60005b838110156115025781810151838201526020016114ea565b50506000910152565b600081518084526115238160208601602086016114e7565b601f01601f19169290920160200192915050565b602081526000610a28602083018461150b565b60006020828403121561155c57600080fd5b610a288261142f565b60008060006040848603121561157a57600080fd5b6115838461142f565b9250602084013567ffffffffffffffff81111561159f57600080fd5b6115ab8682870161144b565b9497909650939450505050565b60ff60f81b881681526000602060e0818401526115d860e084018a61150b565b83810360408501526115ea818a61150b565b606085018990526001600160a01b038816608086015260a0850187905284810360c0860152855180825283870192509083019060005b8181101561163c57835183529284019291840191600101611620565b50909c9b505050505050505050505050565b60006020828403121561166057600080fd5b81518015158114610a2857600080fd5b60006020828403121561168257600080fd5b5051919050565b6001600160a01b038416815260406020820152816040820152818360608301376000818301606090810191909152601f909201601f1916010192915050565b634e487b7160e01b600052604160045260246000fd5b600181811c908216806116f257607f821691505b60208210810361171257634e487b7160e01b600052602260045260246000fd5b50919050565b634e487b7160e01b600052602160045260246000fd5b60006020828403121561174057600080fd5b815167ffffffffffffffff8082111561175857600080fd5b818401915084601f83011261176c57600080fd5b81518181111561177e5761177e6116c8565b604051601f8201601f19908116603f011681019083821181831017156117a6576117a66116c8565b816040528281528760208487010111156117bf57600080fd5b6117d08360208301602088016114e7565b979650505050505050565b600083516117ed8184602088016114e7565b6001600160f81b031993909316919092019081526001019291505056fea164736f6c6343000813000a",
  "linkReferences": {},
  "deployedLinkReferences": {}
}