{
  "_format": "hh-sol-artifact-1",
  "contractName": "HypGHOCollateral",
  "sourceName": "contracts/HypGHOCollateral.sol",
  "abi": [
    {
      "inputs": [
        {
          "internalType": "address",
          "name": "erc20",
          "type": "address"
        },
        {
          "internalType": "address",
          "name": "_mailbox",
          "type": "address"
        }
      ],
      "stateMutability": "nonpayable",
      "type": "constructor"
    },
    {
      "anonymous": false,
      "inputs": [
        {
          "indexed": false,
          "internalType": "uint8",
          "name": "version",
          "type": "uint8"
        }
      ],
      "name": "Initialized",
      "type": "event"
    },
    {
      "anonymous": false,
      "inputs": [
        {
          "indexed": true,
          "internalType": "address",
          "name": "previousOwner",
          "type": "address"
        },
        {
          "indexed": true,
          "internalType": "address",
          "name": "newOwner",
          "type": "address"
        }
      ],
      "name": "OwnershipTransferred",
      "type": "event"
    },
    {
      "anonymous": false,
      "inputs": [
        {
          "indexed": true,
          "internalType": "uint32",
          "name": "origin",
          "type": "uint32"
        },
        {
          "indexed": true,
          "internalType": "bytes32",
          "name": "recipient",
          "type": "bytes32"
        },
        {
          "indexed": false,
          "internalType": "uint256",
          "name": "amount",
          "type": "uint256"
        }
      ],
      "name": "ReceivedTransferRemote",
      "type": "event"
    },
    {
      "anonymous": false,
      "inputs": [
        {
          "indexed": true,
          "internalType": "uint32",
          "name": "destination",
          "type": "uint32"
        },
        {
          "indexed": true,
          "internalType": "bytes32",
          "name": "recipient",
          "type": "bytes32"
        },
        {
          "indexed": false,
          "internalType": "uint256",
          "name": "amount",
          "type": "uint256"
        }
      ],
      "name": "SentTransferRemote",
      "type": "event"
    },
    {
      "inputs": [
        {
          "internalType": "address",
          "name": "_account",
          "type": "address"
        }
      ],
      "name": "balanceOf",
      "outputs": [
        {
          "internalType": "uint256",
          "name": "",
          "type": "uint256"
        }
      ],
      "stateMutability": "view",
      "type": "function"
    },
    {
      "inputs": [
        {
          "internalType": "uint32",
          "name": "",
          "type": "uint32"
        }
      ],
      "name": "destinationGas",
      "outputs": [
        {
          "internalType": "uint256",
          "name": "",
          "type": "uint256"
        }
      ],
      "stateMutability": "view",
      "type": "function"
    },
    {
      "inputs": [],
      "name": "domains",
      "outputs": [
        {
          "internalType": "uint32[]",
          "name": "",
          "type": "uint32[]"
        }
      ],
      "stateMutability": "view",
      "type": "function"
    },
    {
      "inputs": [
        {
          "internalType": "uint32",
          "name": "_domain",
          "type": "uint32"
        },
        {
          "internalType": "bytes32",
          "name": "_router",
          "type": "bytes32"
        }
      ],
      "name": "enrollRemoteRouter",
      "outputs": [],
      "stateMutability": "nonpayable",
      "type": "function"
    },
    {
      "inputs": [
        {
          "internalType": "uint32[]",
          "name": "_domains",
          "type": "uint32[]"
        },
        {
          "internalType": "bytes32[]",
          "name": "_addresses",
          "type": "bytes32[]"
        }
      ],
      "name": "enrollRemoteRouters",
      "outputs": [],
      "stateMutability": "nonpayable",
      "type": "function"
    },
    {
      "inputs": [
        {
          "internalType": "uint32",
          "name": "_origin",
          "type": "uint32"
        },
        {
          "internalType": "bytes32",
          "name": "_sender",
          "type": "bytes32"
        },
        {
          "internalType": "bytes",
          "name": "_message",
          "type": "bytes"
        }
      ],
      "name": "handle",
      "outputs": [],
      "stateMutability": "payable",
      "type": "function"
    },
    {
      "inputs": [],
      "name": "hook",
      "outputs": [
        {
          "internalType": "contract IPostDispatchHook",
          "name": "",
          "type": "address"
        }
      ],
      "stateMutability": "view",
      "type": "function"
    },
    {
      "inputs": [],
      "name": "interchainSecurityModule",
      "outputs": [
        {
          "internalType": "contract IInterchainSecurityModule",
          "name": "",
          "type": "address"
        }
      ],
      "stateMutability": "view",
      "type": "function"
    },
    {
      "inputs": [],
      "name": "localDomain",
      "outputs": [
        {
          "internalType": "uint32",
          "name": "",
          "type": "uint32"
        }
      ],
      "stateMutability": "view",
      "type": "function"
    },
    {
      "inputs": [],
      "name": "mailbox",
      "outputs": [
        {
          "internalType": "contract IMailbox",
          "name": "",
          "type": "address"
        }
      ],
      "stateMutability": "view",
      "type": "function"
    },
    {
      "inputs": [],
      "name": "owner",
      "outputs": [
        {
          "internalType": "address",
          "name": "",
          "type": "address"
        }
      ],
      "stateMutability": "view",
      "type": "function"
    },
    {
      "inputs": [
        {
          "internalType": "uint32",
          "name": "_destinationDomain",
          "type": "uint32"
        }
      ],
      "name": "quoteGasPayment",
      "outputs": [
        {
          "internalType": "uint256",
          "name": "_gasPayment",
          "type": "uint256"
        }
      ],
      "stateMutability": "view",
      "type": "function"
    },
    {
      "inputs": [],
      "name": "renounceOwnership",
      "outputs": [],
      "stateMutability": "nonpayable",
      "type": "function"
    },
    {
      "inputs": [
        {
          "internalType": "uint32",
          "name": "_domain",
          "type": "uint32"
        }
      ],
      "name": "routers",
      "outputs": [
        {
          "internalType": "bytes32",
          "name": "",
          "type": "bytes32"
        }
      ],
      "stateMutability": "view",
      "type": "function"
    },
    {
      "inputs": [
        {
          "internalType": "uint32",
          "name": "domain",
          "type": "uint32"
        },
        {
          "internalType": "uint256",
          "name": "gas",
          "type": "uint256"
        }
      ],
      "name": "setDestinationGas",
      "outputs": [],
      "stateMutability": "nonpayable",
      "type": "function"
    },
    {
      "inputs": [
        {
          "components": [
            {
              "internalType": "uint32",
              "name": "domain",
              "type": "uint32"
            },
            {
              "internalType": "uint256",
              "name": "gas",
              "type": "uint256"
            }
          ],
          "internalType": "struct GasRouter.GasRouterConfig[]",
          "name": "gasConfigs",
          "type": "tuple[]"
        }
      ],
      "name": "setDestinationGas",
      "outputs": [],
      "stateMutability": "nonpayable",
      "type": "function"
    },
    {
      "inputs": [
        {
          "internalType": "address",
          "name": "_hook",
          "type": "address"
        }
      ],
      "name": "setHook",
      "outputs": [],
      "stateMutability": "nonpayable",
      "type": "function"
    },
    {
      "inputs": [
        {
          "internalType": "address",
          "name": "_module",
          "type": "address"
        }
      ],
      "name": "setInterchainSecurityModule",
      "outputs": [],
      "stateMutability": "nonpayable",
      "type": "function"
    },
    {
      "inputs": [
        {
          "internalType": "address",
          "name": "newOwner",
          "type": "address"
        }
      ],
      "name": "transferOwnership",
      "outputs": [],
      "stateMutability": "nonpayable",
      "type": "function"
    },
    {
      "inputs": [
        {
          "internalType": "uint32",
          "name": "_destination",
          "type": "uint32"
        },
        {
          "internalType": "bytes32",
          "name": "_recipient",
          "type": "bytes32"
        },
        {
          "internalType": "uint256",
          "name": "_amountOrId",
          "type": "uint256"
        }
      ],
      "name": "transferRemote",
      "outputs": [
        {
          "internalType": "bytes32",
          "name": "messageId",
          "type": "bytes32"
        }
      ],
      "stateMutability": "payable",
      "type": "function"
    },
    {
      "inputs": [
        {
          "internalType": "uint32",
          "name": "_domain",
          "type": "uint32"
        }
      ],
      "name": "unenrollRemoteRouter",
      "outputs": [],
      "stateMutability": "nonpayable",
      "type": "function"
    },
    {
      "inputs": [
        {
          "internalType": "uint32[]",
          "name": "_domains",
          "type": "uint32[]"
        }
      ],
      "name": "unenrollRemoteRouters",
      "outputs": [],
      "stateMutability": "nonpayable",
      "type": "function"
    },
    {
      "inputs": [],
      "name": "wrappedToken",
      "outputs": [
        {
          "internalType": "contract IERC20",
          "name": "",
          "type": "address"
        }
      ],
      "stateMutability": "view",
      "type": "function"
    }
  ],
  "bytecode": "0x60e06040523480156200001157600080fd5b50604051620020ef380380620020ef8339810160408190526200003491620001a4565b80808080806001600160a01b0381163b620000955760405162461bcd60e51b815260206004820152601e60248201527f4d61696c626f78436c69656e743a20696e76616c6964206d61696c626f780000604482015260640160405180910390fd5b6001600160a01b03821660808190526040805163234d8e3d60e21b81529051638d3638f4916004808201926020929091908290030181865afa158015620000e0573d6000803e3d6000fd5b505050506040513d601f19601f82011682018060405250810190620001069190620001dc565b63ffffffff1660a0526200011a3362000135565b5050506001600160a01b0390931660c052506200020b915050565b603380546001600160a01b038381166001600160a01b0319831681179093556040519116919082907f8be0079c531659141344cd1fd0a4f28419497f9722a3daafe3b4186f6b6457e090600090a35050565b80516001600160a01b03811681146200019f57600080fd5b919050565b60008060408385031215620001b857600080fd5b620001c38362000187565b9150620001d36020840162000187565b90509250929050565b600060208284031215620001ef57600080fd5b815163ffffffff811681146200020457600080fd5b9392505050565b60805160a05160c051611e8a6200026560003960008181610395015281816107c701528181610f680152610faa0152600061032e015260008181610409015281816106990152818161104701526112860152611e8a6000f3fe6080604052600436106101805760003560e01c806381b4e8b4116100d6578063d5438eae1161007f578063efae508a11610059578063efae508a1461046b578063f2ed8c531461048b578063f2fde38b146104ab57600080fd5b8063d5438eae146103f7578063de523cf31461042b578063e9198bf91461044b57600080fd5b8063996c6cc3116100b0578063996c6cc314610383578063b1bd6436146103b7578063b49c53a7146103d757600080fd5b806381b4e8b4146103095780638d3638f41461031c5780638da5cb5b1461036557600080fd5b806356d5d4751161013857806371a15b381161011257806371a15b3814610284578063775313a1146102a45780637f5a7c7b146102d157600080fd5b806356d5d4751461023c57806370a082311461024f578063715018a61461026f57600080fd5b80633dfd3873116101695780633dfd3873146101da578063440df4f4146101fa57806349d462ef1461021c57600080fd5b80630e72cc06146101855780632ead72f6146101a7575b600080fd5b34801561019157600080fd5b506101a56101a03660046118d5565b6104cb565b005b3480156101b357600080fd5b506101c76101c2366004611917565b610584565b6040519081526020015b60405180910390f35b3480156101e657600080fd5b506101a56101f53660046118d5565b6105a3565b34801561020657600080fd5b5061020f610657565b6040516101d19190611932565b34801561022857600080fd5b506101a561023736600461197c565b610668565b6101a561024a3660046119a6565b61068e565b34801561025b57600080fd5b506101c761026a3660046118d5565b6107a5565b34801561027b57600080fd5b506101a561083a565b34801561029057600080fd5b506101a561029f366004611a72565b61084e565b3480156102b057600080fd5b506101c76102bf366004611917565b60ca6020526000908152604090205481565b3480156102dd57600080fd5b506065546102f1906001600160a01b031681565b6040516001600160a01b0390911681526020016101d1565b6101c7610317366004611ab4565b6108a9565b34801561032857600080fd5b506103507f000000000000000000000000000000000000000000000000000000000000000081565b60405163ffffffff90911681526020016101d1565b34801561037157600080fd5b506033546001600160a01b03166102f1565b34801561038f57600080fd5b506102f17f000000000000000000000000000000000000000000000000000000000000000081565b3480156103c357600080fd5b506101a56103d2366004611ae7565b6108b7565b3480156103e357600080fd5b506101a56103f236600461197c565b610941565b34801561040357600080fd5b506102f17f000000000000000000000000000000000000000000000000000000000000000081565b34801561043757600080fd5b506066546102f1906001600160a01b031681565b34801561045757600080fd5b506101a5610466366004611b5c565b610953565b34801561047757600080fd5b506101a5610486366004611917565b610a18565b34801561049757600080fd5b506101c76104a6366004611917565b610a2c565b3480156104b757600080fd5b506101a56104c63660046118d5565b610a47565b806001600160a01b0381163b1515806104eb57506001600160a01b038116155b61054c5760405162461bcd60e51b815260206004820152602760248201527f4d61696c626f78436c69656e743a20696e76616c696420636f6e74726163742060448201526673657474696e6760c81b60648201526084015b60405180910390fd5b610554610ad4565b506066805473ffffffffffffffffffffffffffffffffffffffff19166001600160a01b0392909216919091179055565b60008061059b609763ffffffff80861690610b2e16565b949350505050565b806001600160a01b0381163b1515806105c357506001600160a01b038116155b61061f5760405162461bcd60e51b815260206004820152602760248201527f4d61696c626f78436c69656e743a20696e76616c696420636f6e74726163742060448201526673657474696e6760c81b6064820152608401610543565b610627610ad4565b506065805473ffffffffffffffffffffffffffffffffffffffff19166001600160a01b0392909216919091179055565b60606106636097610b47565b905090565b610670610ad4565b63ffffffff91909116600090815260ca6020526040902055565b5050565b336001600160a01b037f000000000000000000000000000000000000000000000000000000000000000016146107105760405162461bcd60e51b815260206004820152602160248201527f4d61696c626f78436c69656e743a2073656e646572206e6f74206d61696c626f6044820152600f60fb1b6064820152608401610543565b600061071b85610c02565b90508381146107925760405162461bcd60e51b815260206004820152602560248201527f456e726f6c6c656420726f7574657220646f6573206e6f74206d61746368207360448201527f656e6465720000000000000000000000000000000000000000000000000000006064820152608401610543565b61079e85858585610c4e565b5050505050565b6040516370a0823160e01b81526001600160a01b0382811660048301526000917f0000000000000000000000000000000000000000000000000000000000000000909116906370a0823190602401602060405180830381865afa158015610810573d6000803e3d6000fd5b505050506040513d601f19601f820116820180604052508101906108349190611bc8565b92915050565b610842610ad4565b61084c6000610cd8565b565b610856610ad4565b8060005b818110156108a35761089184848381811061087757610877611be1565b905060200201602081019061088c9190611917565b610d37565b61089c600182611c0d565b905061085a565b50505050565b600061059b84848434610d72565b6108bf610ad4565b60005b8181101561093c5761092a8383838181106108df576108df611be1565b6108f59260206040909202019081019150611917565b84848481811061090757610907611be1565b9050604002016020013563ffffffff909116600090815260ca6020526040902055565b610935600182611c0d565b90506108c2565b505050565b610949610ad4565b61068a8282610de1565b61095b610ad4565b8281146109aa5760405162461bcd60e51b815260206004820152600760248201527f216c656e677468000000000000000000000000000000000000000000000000006044820152606401610543565b8260005b81811015610a10576109fe8686838181106109cb576109cb611be1565b90506020020160208101906109e09190611917565b8585848181106109f2576109f2611be1565b90506020020135610de1565b610a09600182611c0d565b90506109ae565b505050505050565b610a20610ad4565b610a2981610d37565b50565b60006108348260405180602001604052806000815250610df7565b610a4f610ad4565b6001600160a01b038116610acb5760405162461bcd60e51b815260206004820152602660248201527f4f776e61626c653a206e6577206f776e657220697320746865207a65726f206160448201527f64647265737300000000000000000000000000000000000000000000000000006064820152608401610543565b610a2981610cd8565b6033546001600160a01b0316331461084c5760405162461bcd60e51b815260206004820181905260248201527f4f776e61626c653a2063616c6c6572206973206e6f7420746865206f776e65726044820152606401610543565b600080610b3b8484610e10565b915091505b9250929050565b60606000610b5483610e4a565b9050805167ffffffffffffffff811115610b7057610b70611c20565b604051908082528060200260200182016040528015610b99578160200160208202803683370190505b50915060005b8151811015610bfb57818181518110610bba57610bba611be1565b6020026020010151838281518110610bd457610bd4611be1565b63ffffffff9092166020928302919091019091015280610bf381611c36565b915050610b9f565b5050919050565b60008080610c1a609763ffffffff80871690610b2e16565b9150915081610c2885610ee5565b90610c465760405162461bcd60e51b81526004016105439190611c9f565b509392505050565b6000610c5a8383610f1c565b90506000610c688484610f3b565b9050366000610c778686610f4b565b91509150610c8d610c858590565b848484610f5b565b838863ffffffff167fba20947a325f450d232530e5f5fce293e7963499d5309a07cee84a269f2f15a685604051610cc691815260200190565b60405180910390a35050505050505050565b603380546001600160a01b0383811673ffffffffffffffffffffffffffffffffffffffff19831681179093556040519116919082907f8be0079c531659141344cd1fd0a4f28419497f9722a3daafe3b4186f6b6457e090600090a35050565b610d4b609763ffffffff80841690610f8f16565b610d5482610ee5565b9061068a5760405162461bcd60e51b81526004016105439190611c9f565b600080610d7e84610f9b565b9050610d958684610d90888886610fe6565b611015565b9150848663ffffffff167fd229aacb94204188fe8042965fa6b269c62dc5818b21238779ab64bdd17efeec86604051610dd091815260200190565b60405180910390a350949350505050565b61068a609763ffffffff80851690849061103816565b600080610e0384610c02565b905061059b848285611043565b6000818152600283016020526040812054819080610e3f57610e3285856110f2565b925060009150610b409050565b600192509050610b40565b60606000610e57836110fe565b90508067ffffffffffffffff811115610e7257610e72611c20565b604051908082528060200260200182016040528015610e9b578160200160208202803683370190505b50915060005b81811015610bfb57610eb38482611109565b60001c838281518110610ec857610ec8611be1565b602090810291909101015280610edd81611c36565b915050610ea1565b6060610ef68263ffffffff16611115565b604051602001610f069190611cb2565b6040516020818303038152906040529050919050565b6000610f2b6020828486611cf7565b610f3491611d21565b9392505050565b6000610f2b604060208486611cf7565b366000610b3b8360408187611cf7565b6108a36001600160a01b037f00000000000000000000000000000000000000000000000000000000000000001685856111b5565b6000610f34838361122d565b6060610fd26001600160a01b037f00000000000000000000000000000000000000000000000000000000000000001633308561124a565b505060408051602081019091526000815290565b6060838383604051602001610ffd93929190611d3f565b60405160208183030381529060405290509392505050565b60008061102185610c02565b905061102f85828686611282565b95945050505050565b6108a3838383611334565b60007f00000000000000000000000000000000000000000000000000000000000000006001600160a01b03166381d2ea9585858561108089611351565b6065546040516001600160e01b031960e088901b1681526110b195949392916001600160a01b031690600401611d6c565b602060405180830381865afa1580156110ce573d6000803e3d6000fd5b505050506040513d601f19601f8201168201806040525081019061059b9190611bc8565b6000610f348383611373565b60006108348261138b565b6000610f348383611395565b60606000611122836113bf565b600101905060008167ffffffffffffffff81111561114257611142611c20565b6040519080825280601f01601f19166020018201604052801561116c576020820181803683370190505b5090508181016020015b600019017f3031323334353637383961626364656600000000000000000000000000000000600a86061a8153600a850494508461117657509392505050565b6040516001600160a01b03831660248201526044810182905261093c90849063a9059cbb60e01b906064015b60408051601f198184030181529190526020810180517bffffffffffffffffffffffffffffffffffffffffffffffffffffffff166001600160e01b0319909316929092179091526114a1565b60008181526002830160205260408120819055610f348383611589565b6040516001600160a01b03808516602483015283166044820152606481018290526108a39085906323b872dd60e01b906084016111e1565b60007f00000000000000000000000000000000000000000000000000000000000000006001600160a01b03166310b83dc0848787866112c08b611351565b6065546040516001600160e01b031960e089901b1681526112f195949392916001600160a01b031690600401611d6c565b60206040518083038185885af115801561130f573d6000803e3d6000fd5b50505050506040513d601f19601f8201168201806040525081019061102f9190611bc8565b6000828152600284016020526040812082905561059b8484611595565b63ffffffff8116600090815260ca6020526040902054606090610834906115a1565b60008181526001830160205260408120541515610f34565b6000610834825490565b60008260000182815481106113ac576113ac611be1565b9060005260206000200154905092915050565b6000807a184f03e93ff9f4daa797ed6e38ed64bf6a1f0100000000000000008310611408577a184f03e93ff9f4daa797ed6e38ed64bf6a1f010000000000000000830492506040015b6d04ee2d6d415b85acef81000000008310611434576d04ee2d6d415b85acef8100000000830492506020015b662386f26fc10000831061145257662386f26fc10000830492506010015b6305f5e100831061146a576305f5e100830492506008015b612710831061147e57612710830492506004015b60648310611490576064830492506002015b600a83106108345760010192915050565b60006114f6826040518060400160405280602081526020017f5361666545524332303a206c6f772d6c6576656c2063616c6c206661696c6564815250856001600160a01b03166115bf9092919063ffffffff16565b90508051600014806115175750808060200190518101906115179190611dbf565b61093c5760405162461bcd60e51b815260206004820152602a60248201527f5361666545524332303a204552433230206f7065726174696f6e20646964206e60448201527f6f742073756363656564000000000000000000000000000000000000000000006064820152608401610543565b6000610f3483836115ce565b6000610f3483836116c1565b60606108346000833360405180602001604052806000815250611710565b606061059b8484600085611745565b600081815260018301602052604081205480156116b75760006115f2600183611de1565b855490915060009061160690600190611de1565b905081811461166b57600086600001828154811061162657611626611be1565b906000526020600020015490508087600001848154811061164957611649611be1565b6000918252602080832090910192909255918252600188019052604090208390555b855486908061167c5761167c611df4565b600190038181906000526020600020016000905590558560010160008681526020019081526020016000206000905560019350505050610834565b6000915050610834565b600081815260018301602052604081205461170857508154600181810184556000848152602080822090930184905584548482528286019093526040902091909155610834565b506000610834565b606060018585858560405160200161172c959493929190611e0a565b6040516020818303038152906040529050949350505050565b6060824710156117bd5760405162461bcd60e51b815260206004820152602660248201527f416464726573733a20696e73756666696369656e742062616c616e636520666f60448201527f722063616c6c00000000000000000000000000000000000000000000000000006064820152608401610543565b600080866001600160a01b031685876040516117d99190611e61565b60006040518083038185875af1925050503d8060008114611816576040519150601f19603f3d011682016040523d82523d6000602084013e61181b565b606091505b509150915061182c87838387611837565b979650505050505050565b606083156118a657825160000361189f576001600160a01b0385163b61189f5760405162461bcd60e51b815260206004820152601d60248201527f416464726573733a2063616c6c20746f206e6f6e2d636f6e74726163740000006044820152606401610543565b508161059b565b61059b83838151156118bb5781518083602001fd5b8060405162461bcd60e51b81526004016105439190611c9f565b6000602082840312156118e757600080fd5b81356001600160a01b0381168114610f3457600080fd5b803563ffffffff8116811461191257600080fd5b919050565b60006020828403121561192957600080fd5b610f34826118fe565b6020808252825182820181905260009190848201906040850190845b8181101561197057835163ffffffff168352928401929184019160010161194e565b50909695505050505050565b6000806040838503121561198f57600080fd5b611998836118fe565b946020939093013593505050565b600080600080606085870312156119bc57600080fd5b6119c5856118fe565b935060208501359250604085013567ffffffffffffffff808211156119e957600080fd5b818701915087601f8301126119fd57600080fd5b813581811115611a0c57600080fd5b886020828501011115611a1e57600080fd5b95989497505060200194505050565b60008083601f840112611a3f57600080fd5b50813567ffffffffffffffff811115611a5757600080fd5b6020830191508360208260051b8501011115610b4057600080fd5b60008060208385031215611a8557600080fd5b823567ffffffffffffffff811115611a9c57600080fd5b611aa885828601611a2d565b90969095509350505050565b600080600060608486031215611ac957600080fd5b611ad2846118fe565b95602085013595506040909401359392505050565b60008060208385031215611afa57600080fd5b823567ffffffffffffffff80821115611b1257600080fd5b818501915085601f830112611b2657600080fd5b813581811115611b3557600080fd5b8660208260061b8501011115611b4a57600080fd5b60209290920196919550909350505050565b60008060008060408587031215611b7257600080fd5b843567ffffffffffffffff80821115611b8a57600080fd5b611b9688838901611a2d565b90965094506020870135915080821115611baf57600080fd5b50611bbc87828801611a2d565b95989497509550505050565b600060208284031215611bda57600080fd5b5051919050565b634e487b7160e01b600052603260045260246000fd5b634e487b7160e01b600052601160045260246000fd5b8082018082111561083457610834611bf7565b634e487b7160e01b600052604160045260246000fd5b600060018201611c4857611c48611bf7565b5060010190565b60005b83811015611c6a578181015183820152602001611c52565b50506000910152565b60008151808452611c8b816020860160208601611c4f565b601f01601f19169290920160200192915050565b602081526000610f346020830184611c73565b7f4e6f20726f7574657220656e726f6c6c656420666f7220646f6d61696e3a2000815260008251611cea81601f850160208701611c4f565b91909101601f0192915050565b60008085851115611d0757600080fd5b83861115611d1457600080fd5b5050820193919092039150565b8035602083101561083457600019602084900360031b1b1692915050565b83815282602082015260008251611d5d816040850160208701611c4f565b91909101604001949350505050565b63ffffffff8616815284602082015260a060408201526000611d9160a0830186611c73565b8281036060840152611da38186611c73565b9150506001600160a01b03831660808301529695505050505050565b600060208284031215611dd157600080fd5b81518015158114610f3457600080fd5b8181038181111561083457610834611bf7565b634e487b7160e01b600052603160045260246000fd5b61ffff60f01b8660f01b1681528460028201528360228201526bffffffffffffffffffffffff198360601b16604282015260008251611e50816056850160208701611c4f565b919091016056019695505050505050565b60008251611e73818460208701611c4f565b919091019291505056fea164736f6c6343000813000a",
  "linkReferences": {},
  "deployedLinkReferences": {}
}