{
  "_format": "hh-sol-artifact-1",
  "contractName": "BridgeFacilitator",
  "sourceName": "contracts/BridgeFacilitator.sol",
  "abi": [
    {
      "inputs": [
        {
          "internalType": "address",
          "name": "_ghoToken",
          "type": "address"
        },
        {
          "internalType": "address",
          "name": "_router",
          "type": "address"
        }
      ],
      "stateMutability": "nonpayable",
      "type": "constructor"
    },
    {
      "anonymous": false,
      "inputs": [
        {
          "indexed": true,
          "internalType": "address",
          "name": "user",
          "type": "address"
        },
        {
          "indexed": false,
          "internalType": "uint256",
          "name": "amount",
          "type": "uint256"
        }
      ],
      "name": "GhoLocked",
      "type": "event"
    },
    {
      "anonymous": false,
      "inputs": [
        {
          "indexed": true,
          "internalType": "address",
          "name": "user",
          "type": "address"
        },
        {
          "indexed": false,
          "internalType": "uint256",
          "name": "amount",
          "type": "uint256"
        }
      ],
      "name": "GhoUnlocked",
      "type": "event"
    },
    {
      "anonymous": false,
      "inputs": [
        {
          "indexed": true,
          "internalType": "bytes32",
          "name": "role",
          "type": "bytes32"
        },
        {
          "indexed": true,
          "internalType": "bytes32",
          "name": "previousAdminRole",
          "type": "bytes32"
        },
        {
          "indexed": true,
          "internalType": "bytes32",
          "name": "newAdminRole",
          "type": "bytes32"
        }
      ],
      "name": "RoleAdminChanged",
      "type": "event"
    },
    {
      "anonymous": false,
      "inputs": [
        {
          "indexed": true,
          "internalType": "bytes32",
          "name": "role",
          "type": "bytes32"
        },
        {
          "indexed": true,
          "internalType": "address",
          "name": "account",
          "type": "address"
        },
        {
          "indexed": true,
          "internalType": "address",
          "name": "sender",
          "type": "address"
        }
      ],
      "name": "RoleGranted",
      "type": "event"
    },
    {
      "anonymous": false,
      "inputs": [
        {
          "indexed": true,
          "internalType": "bytes32",
          "name": "role",
          "type": "bytes32"
        },
        {
          "indexed": true,
          "internalType": "address",
          "name": "account",
          "type": "address"
        },
        {
          "indexed": true,
          "internalType": "address",
          "name": "sender",
          "type": "address"
        }
      ],
      "name": "RoleRevoked",
      "type": "event"
    },
    {
      "inputs": [],
      "name": "ADMIN_ROLE",
      "outputs": [
        {
          "internalType": "bytes32",
          "name": "",
          "type": "bytes32"
        }
      ],
      "stateMutability": "view",
      "type": "function"
    },
    {
      "inputs": [],
      "name": "DEFAULT_ADMIN_ROLE",
      "outputs": [
        {
          "internalType": "bytes32",
          "name": "",
          "type": "bytes32"
        }
      ],
      "stateMutability": "view",
      "type": "function"
    },
    {
      "inputs": [
        {
          "internalType": "bytes32",
          "name": "role",
          "type": "bytes32"
        }
      ],
      "name": "getRoleAdmin",
      "outputs": [
        {
          "internalType": "bytes32",
          "name": "",
          "type": "bytes32"
        }
      ],
      "stateMutability": "view",
      "type": "function"
    },
    {
      "inputs": [
        {
          "internalType": "address",
          "name": "user",
          "type": "address"
        }
      ],
      "name": "getUserLockedGho",
      "outputs": [
        {
          "internalType": "uint256",
          "name": "",
          "type": "uint256"
        }
      ],
      "stateMutability": "view",
      "type": "function"
    },
    {
      "inputs": [],
      "name": "ghoToken",
      "outputs": [
        {
          "internalType": "contract IERC20",
          "name": "",
          "type": "address"
        }
      ],
      "stateMutability": "view",
      "type": "function"
    },
    {
      "inputs": [
        {
          "internalType": "address",
          "name": "account",
          "type": "address"
        }
      ],
      "name": "grantAdminRole",
      "outputs": [],
      "stateMutability": "nonpayable",
      "type": "function"
    },
    {
      "inputs": [
        {
          "internalType": "bytes32",
          "name": "role",
          "type": "bytes32"
        },
        {
          "internalType": "address",
          "name": "account",
          "type": "address"
        }
      ],
      "name": "grantRole",
      "outputs": [],
      "stateMutability": "nonpayable",
      "type": "function"
    },
    {
      "inputs": [
        {
          "internalType": "bytes32",
          "name": "role",
          "type": "bytes32"
        },
        {
          "internalType": "address",
          "name": "account",
          "type": "address"
        }
      ],
      "name": "hasRole",
      "outputs": [
        {
          "internalType": "bool",
          "name": "",
          "type": "bool"
        }
      ],
      "stateMutability": "view",
      "type": "function"
    },
    {
      "inputs": [
        {
          "internalType": "uint256",
          "name": "amount",
          "type": "uint256"
        },
        {
          "internalType": "uint32",
          "name": "_destinationChain",
          "type": "uint32"
        },
        {
          "internalType": "address",
          "name": "_recipient",
          "type": "address"
        }
      ],
      "name": "lockGho",
      "outputs": [],
      "stateMutability": "nonpayable",
      "type": "function"
    },
    {
      "inputs": [
        {
          "internalType": "bytes32",
          "name": "role",
          "type": "bytes32"
        },
        {
          "internalType": "address",
          "name": "account",
          "type": "address"
        }
      ],
      "name": "renounceRole",
      "outputs": [],
      "stateMutability": "nonpayable",
      "type": "function"
    },
    {
      "inputs": [
        {
          "internalType": "address",
          "name": "account",
          "type": "address"
        }
      ],
      "name": "revokeAdminRole",
      "outputs": [],
      "stateMutability": "nonpayable",
      "type": "function"
    },
    {
      "inputs": [
        {
          "internalType": "bytes32",
          "name": "role",
          "type": "bytes32"
        },
        {
          "internalType": "address",
          "name": "account",
          "type": "address"
        }
      ],
      "name": "revokeRole",
      "outputs": [],
      "stateMutability": "nonpayable",
      "type": "function"
    },
    {
      "inputs": [],
      "name": "router",
      "outputs": [
        {
          "internalType": "contract IHypGHOCollateral",
          "name": "",
          "type": "address"
        }
      ],
      "stateMutability": "view",
      "type": "function"
    },
    {
      "inputs": [
        {
          "internalType": "bytes4",
          "name": "interfaceId",
          "type": "bytes4"
        }
      ],
      "name": "supportsInterface",
      "outputs": [
        {
          "internalType": "bool",
          "name": "",
          "type": "bool"
        }
      ],
      "stateMutability": "view",
      "type": "function"
    },
    {
      "inputs": [],
      "name": "totalLockedGho",
      "outputs": [
        {
          "internalType": "uint256",
          "name": "",
          "type": "uint256"
        }
      ],
      "stateMutability": "view",
      "type": "function"
    },
    {
      "stateMutability": "payable",
      "type": "receive"
    }
  ],
  "bytecode": "0x60806040523480156200001157600080fd5b5060405162001250380380620012508339810160408190526200003491620003e0565b620000607fa49807205ce4d355092ef5a8a18f56e8913cf4a201fbe287825b095693c217753362000092565b600380546001600160a01b039384166001600160a01b0319918216179091556004805492909316911617905562000578565b600082815260208190526040902060010154620000af81620000c0565b620000bb8383620000cf565b505050565b620000cc813362000158565b50565b620000db8282620001c5565b62000154576000828152602081815260408083206001600160a01b03851684529091529020805460ff19166001179055620001133390565b6001600160a01b0316816001600160a01b0316837f2f8788117e7eff1d82e926ec794901d17c78024a50270940304540a733656f0d60405160405180910390a45b5050565b620001648282620001c5565b62000154576200017481620001f0565b6200018183602062000203565b604051602001620001949291906200043e565b60408051601f198184030181529082905262461bcd60e51b8252620001bc91600401620004b7565b60405180910390fd5b6000828152602081815260408083206001600160a01b038516845290915290205460ff165b92915050565b6060620001ea6001600160a01b03831660145b606060006200021483600262000502565b620002219060026200051c565b6001600160401b038111156200023b576200023b62000532565b6040519080825280601f01601f19166020018201604052801562000266576020820181803683370190505b509050600360fc1b8160008151811062000284576200028462000548565b60200101906001600160f81b031916908160001a905350600f60fb1b81600181518110620002b657620002b662000548565b60200101906001600160f81b031916908160001a9053506000620002dc84600262000502565b620002e99060016200051c565b90505b60018111156200036b576f181899199a1a9b1b9c1cb0b131b232b360811b85600f166010811062000321576200032162000548565b1a60f81b8282815181106200033a576200033a62000548565b60200101906001600160f81b031916908160001a90535060049490941c9362000363816200055e565b9050620002ec565b508315620003bc5760405162461bcd60e51b815260206004820181905260248201527f537472696e67733a20686578206c656e67746820696e73756666696369656e746044820152606401620001bc565b9392505050565b80516001600160a01b0381168114620003db57600080fd5b919050565b60008060408385031215620003f457600080fd5b620003ff83620003c3565b91506200040f60208401620003c3565b90509250929050565b60005b83811015620004355781810151838201526020016200041b565b50506000910152565b7f416363657373436f6e74726f6c3a206163636f756e74200000000000000000008152600083516200047881601785016020880162000418565b7001034b99036b4b9b9b4b733903937b6329607d1b6017918401918201528351620004ab81602884016020880162000418565b01602801949350505050565b6020815260008251806020840152620004d881604085016020870162000418565b601f01601f19169190910160400192915050565b634e487b7160e01b600052601160045260246000fd5b8082028115828204841417620001ea57620001ea620004ec565b80820180821115620001ea57620001ea620004ec565b634e487b7160e01b600052604160045260246000fd5b634e487b7160e01b600052603260045260246000fd5b600081620005705762000570620004ec565b506000190190565b610cc880620005886000396000f3fe6080604052600436106100ec5760003560e01c806375b238fc1161008a578063aa7e877611610059578063aa7e877614610333578063c634b78e14610349578063d547741f14610369578063f887ea401461038957600080fd5b806375b238fc1461028657806391d14854146102ba5780639a19c7b0146102fe578063a217fddf1461031e57600080fd5b80632f2ff15d116100c65780632f2ff15d146101ec57806336568abe1461020e5780635996db911461022e5780635bca4a831461026657600080fd5b806301ffc9a714610143578063116831cb14610178578063248a9ca3146101bc57600080fd5b3661013e5760405162461bcd60e51b815260206004820181905260248201527f446972656374204554482073656e647320617265206e6f7420616c6c6f77656460448201526064015b60405180910390fd5b600080fd5b34801561014f57600080fd5b5061016361015e366004610a5a565b6103a9565b60405190151581526020015b60405180910390f35b34801561018457600080fd5b506101ae610193366004610aa0565b6001600160a01b031660009081526002602052604090205490565b60405190815260200161016f565b3480156101c857600080fd5b506101ae6101d7366004610abb565b60009081526020819052604090206001015490565b3480156101f857600080fd5b5061020c610207366004610ad4565b6103e0565b005b34801561021a57600080fd5b5061020c610229366004610ad4565b61040a565b34801561023a57600080fd5b5060035461024e906001600160a01b031681565b6040516001600160a01b03909116815260200161016f565b34801561027257600080fd5b5061020c610281366004610b00565b610496565b34801561029257600080fd5b506101ae7fa49807205ce4d355092ef5a8a18f56e8913cf4a201fbe287825b095693c2177581565b3480156102c657600080fd5b506101636102d5366004610ad4565b6000918252602082815260408084206001600160a01b0393909316845291905290205460ff1690565b34801561030a57600080fd5b5061020c610319366004610aa0565b61062e565b34801561032a57600080fd5b506101ae600081565b34801561033f57600080fd5b506101ae60015481565b34801561035557600080fd5b5061020c610364366004610aa0565b610682565b34801561037557600080fd5b5061020c610384366004610ad4565b6106d6565b34801561039557600080fd5b5060045461024e906001600160a01b031681565b60006001600160e01b03198216637965db0b60e01b14806103da57506301ffc9a760e01b6001600160e01b03198316145b92915050565b6000828152602081905260409020600101546103fb816106fb565b6104058383610708565b505050565b6001600160a01b03811633146104885760405162461bcd60e51b815260206004820152602f60248201527f416363657373436f6e74726f6c3a2063616e206f6e6c792072656e6f756e636560448201527f20726f6c657320666f722073656c6600000000000000000000000000000000006064820152608401610135565b61049282826107a6565b5050565b600083116104e65760405162461bcd60e51b815260206004820152600b60248201527f4e6f2047484f2073656e740000000000000000000000000000000000000000006044820152606401610135565b6004805460405163206d3a2d60e21b815263ffffffff8516928101929092526001600160a01b0383811660248401526044830186905216906381b4e8b4906064016020604051808303816000875af1158015610546573d6000803e3d6000fd5b505050506040513d601f19601f8201168201806040525081019061056a9190610b47565b6000036105b95760405162461bcd60e51b815260206004820152600f60248201527f5472616e73666572206661696c656400000000000000000000000000000000006044820152606401610135565b82600160008282546105cb9190610b76565b909155505033600090815260026020526040812080548592906105ef908490610b76565b909155505060405183815233907f6db0da424be8042470db1a49ce5fa342a7edb86fcc344c5632312e7093ad58119060200160405180910390a2505050565b7fa49807205ce4d355092ef5a8a18f56e8913cf4a201fbe287825b095693c21775610658816106fb565b6104927fa49807205ce4d355092ef5a8a18f56e8913cf4a201fbe287825b095693c21775836106d6565b7fa49807205ce4d355092ef5a8a18f56e8913cf4a201fbe287825b095693c217756106ac816106fb565b6104927fa49807205ce4d355092ef5a8a18f56e8913cf4a201fbe287825b095693c21775836103e0565b6000828152602081905260409020600101546106f1816106fb565b61040583836107a6565b6107058133610825565b50565b6000828152602081815260408083206001600160a01b038516845290915290205460ff16610492576000828152602081815260408083206001600160a01b03851684529091529020805460ff191660011790556107623390565b6001600160a01b0316816001600160a01b0316837f2f8788117e7eff1d82e926ec794901d17c78024a50270940304540a733656f0d60405160405180910390a45050565b6000828152602081815260408083206001600160a01b038516845290915290205460ff1615610492576000828152602081815260408083206001600160a01b0385168085529252808320805460ff1916905551339285917ff6391f5c32d9c69d2a47ea670b442974b53935d1edc7fd64eb21e047a839171b9190a45050565b6000828152602081815260408083206001600160a01b038516845290915290205460ff166104925761085681610898565b6108618360206108aa565b604051602001610872929190610bad565b60408051601f198184030181529082905262461bcd60e51b825261013591600401610c2e565b60606103da6001600160a01b03831660145b606060006108b9836002610c61565b6108c4906002610b76565b67ffffffffffffffff8111156108dc576108dc610c78565b6040519080825280601f01601f191660200182016040528015610906576020820181803683370190505b509050600360fc1b8160008151811061092157610921610c8e565b60200101906001600160f81b031916908160001a905350600f60fb1b8160018151811061095057610950610c8e565b60200101906001600160f81b031916908160001a9053506000610974846002610c61565b61097f906001610b76565b90505b6001811115610a04577f303132333435363738396162636465660000000000000000000000000000000085600f16601081106109c0576109c0610c8e565b1a60f81b8282815181106109d6576109d6610c8e565b60200101906001600160f81b031916908160001a90535060049490941c936109fd81610ca4565b9050610982565b508315610a535760405162461bcd60e51b815260206004820181905260248201527f537472696e67733a20686578206c656e67746820696e73756666696369656e746044820152606401610135565b9392505050565b600060208284031215610a6c57600080fd5b81356001600160e01b031981168114610a5357600080fd5b80356001600160a01b0381168114610a9b57600080fd5b919050565b600060208284031215610ab257600080fd5b610a5382610a84565b600060208284031215610acd57600080fd5b5035919050565b60008060408385031215610ae757600080fd5b82359150610af760208401610a84565b90509250929050565b600080600060608486031215610b1557600080fd5b83359250602084013563ffffffff81168114610b3057600080fd5b9150610b3e60408501610a84565b90509250925092565b600060208284031215610b5957600080fd5b5051919050565b634e487b7160e01b600052601160045260246000fd5b808201808211156103da576103da610b60565b60005b83811015610ba4578181015183820152602001610b8c565b50506000910152565b7f416363657373436f6e74726f6c3a206163636f756e7420000000000000000000815260008351610be5816017850160208801610b89565b7f206973206d697373696e6720726f6c65200000000000000000000000000000006017918401918201528351610c22816028840160208801610b89565b01602801949350505050565b6020815260008251806020840152610c4d816040850160208701610b89565b601f01601f19169190910160400192915050565b80820281158282048414176103da576103da610b60565b634e487b7160e01b600052604160045260246000fd5b634e487b7160e01b600052603260045260246000fd5b600081610cb357610cb3610b60565b50600019019056fea164736f6c6343000813000a",
  "linkReferences": {},
  "deployedLinkReferences": {}
}